:100000000C9469030C946C250C94A1030C94A1032B
:100010000C94A1030C94A1030C94A1030C94A103D0
:100020000C94A1030C94A1030C94A72C0C947B2D8D
:100030000C94AD270C94A1030C94A1030C94A10380
:100040000C94A1030C94A1030C94A1030C94A103A0
:100050000C94A1030C9450280C94A1030C94A103BC
:100060000C94A1030C94A1030C94A1030C94A10380
:100070000C94A1030C94A1030C94A1030C94A10370
:100080000C94A1030C94A1030C94A1030C94A10360
:100090000C94A1030C94A1030C94A1030C94A10350
:1000A0000C94A1030C94A1030C94A10335001E0031
:1000B0001F002000210022002B0014001A0008005D
:1000C00015001700290004001600070009000A00A7
:1000D000E1001D001B00060019000500E000E30020
:1000E000E200205223522C00230024002500260089
:1000F00027002A001C0018000C00120013004C00FE
:100100000B000D000E000F00330034001100100032
:1001100036003700380028002C00245250005100CF
:1001200052004F0035001E001F0020002100220059
:100130002B0014001A00090013000A002900040013
:100140001500160017000700E1001D001B00060047
:10015000190005002552E000E200E30023522C00C4
:10016000230024002500260027002A000D000F0090
:1001700018001C0033004C000B00110008000C009C
:10018000120034000E00100036003700380028003E
:100190002C0024525000510052004F0035001E0028
:1001A0001F002000210022002B0034003600370001
:1001B00013001C00290004001200080018000C00A5
:1001C000E100330014000D000E001B002552E0007A
:1001D000E200E30023522C00230024002500260027
:1001E00027002A0009000A00060015000F004C0035
:1001F00007000B0017001100160038000500100062
:100200001A0019001D0028002C0024525000510033
:1002100052004F0035021E021F022002210222025C
:100220000000000000000000000000004C00000082
:1002300000000000A8000000057800000000000099
:10024000000000002878277801000100010001006B
:1002500023022402250226022702A60046004700A8
:1002600048002F0030004C00000000004A005200FF
:100270004D00310200003202500051004F000100D9
:1002800001002552AE00AC00AB00AD0029003A00E1
:100290003B003C003D003E0000004400450046009D
:1002A0004700480000000000000000000000260099
:1002B000000000000000000000002F00010001000D
:1002C00001000100255201003F00400041004200B2
:1002D00043002A0049004A004D004B004E004C00EC
:1002E00027002D002E002F0030003100300032009A
:1002F00064004B004E00000001000100AB00AA00AA
:10030000A900AE003A003B003C003D003E003F002B
:100310000578007C027C2178000000000278010052
:1003200001008074817415700678010001000100DD
:10033000010001002078010001000100010001001E
:100340004000410042004300440045000000257881
:100350002878000000004C00147040524152425274
:1003600029782A78010001002378257827782178D8
:100370000100010024782678287822781E0F0500D5
:10038000047F3F1F643214643214783C1E1E140A2A
:10039000052223252628292A2C2D2F3032333536C5
:1003A000383A3B3D3E4042434547494A4C4E505106
:1003B000535557595A5C5E6062646668696B6D6F2D
:1003C00071737577797B7D7F81838587898A8C8E30
:1003D00090929496989A9C9E9FA1A3A5A7A8AAAC38
:1003E000AEAFB1B3B4B6B8B9BBBCBEBFC1C2C3C572
:1003F000C6C7C9CACBCCCDCED0D1D2D2D3D4D5D614
:10040000D7D7D8D9D9DADADBDBDBDCDCDCDCDCDD46
:10041000DDDDDDDCDCDCDCDCDBDBDBDADAD9D9D82A
:10042000D7D7D6D5D4D3D2D2D1D0CECDCCCBCAC9C2
:10043000C7C6C5C3C2C1BFBEBCBBB9B8B6B4B3B1F1
:10044000AFAEACAAA8A7A5A3A19F9E9C9A9896948C
:1004500092908E8C8A89878583817F7D7B79777561
:1004600073716F6D6B6968666462605E5C5A595740
:10047000555351504E4C4A4947454342403E3D3BFF
:100480003A3836353332302F2D2C2A292826252389
:1004900022FFAA7F55400001010101010101010174
:1004A0000202020202020202020303030303030325
:1004B00003040404040404040505050505060606F2
:1004C0000606070707070708080808090909090AAF
:1004D0000A0A0B0B0B0C0C0C0D0D0D0E0E0E0F0F54
:1004E0000F101011111112121313141415151616E2
:1004F0001717181819191A1A1B1B1C1D1D1E1E1F51
:100500002020212222232424252626272829292A9F
:100510002B2C2D2D2E2F30313232333435363738C7
:10052000393A3B3C3D3E3F404142434445464748C3
:10053000494A4C4D4E4F50515354555658595A5B99
:100540005D5E5F616264656668696B6C6D6F707239
:10055000737577787A7B7D7E8082838587888A8CA5
:100560008E8F91939596989A9C9EA0A2A3A5A7A9D9
:10057000ABADAFB1B3B5B7BABCBEC0C2C4C6C9CBD0
:10058000CDCFD1D4D6D8DBDDDFE2E4E7E9EBEEF086
:10059000F3F5F8FAFDFF1E034E00790071007500B7
:1005A00069007300740020005200650076002E0080
:1005B0002000330000000E034B0065006500620060
:1005C00069006F0000000403090409023B000201F6
:1005D00000A0FA0904000001030101000921110132
:1005E0000001224000070581030800010904010001
:1005F0000103000000092111010001227B00070511
:100600008203200001120100020000000810CB56F6
:100610003100030102000105010902A1018502095F
:1006200001A1000509190129081500250195087582
:100630000181020501093009311581257F95027577
:1006400008810609381581257F9501750881060501
:100650000C0A38021581257F950175088106C0C0F6
:1006600005010980A101850319012AB7001501269A
:10067000B700950175108100C0050C0901A1018525
:100680000419012AA002150126A002950175108106
:1006900000C005010906A101050719E029E71500B9
:1006A00025019508750181029501750881010507ED
:1006B000190029FF150026FF009506750881000521
:1006C0000819012905950575019102950175039198
:1006D00001C011241FBECFEFDAE0DEBFCDBF04B6EC
:1006E00003FE18C080917E0390917F03A091800348
:1006F000B09181038730904BA740B04B59F41092D2
:100700007E0310927F031092800310928103E0E039
:10071000F8E3099511E0A0E0B1E0E4EAF2E602C0F6
:1007200005900D92A63FB107D9F723E0A6EFB1E0FF
:1007300001C01D92AE37B207E1F70E9429160C9452
:10074000FC300C9400000E94752185E00E94E82195
:100750000E941F1F4FEF6FEF80E00E94811B8BE014
:100760000E941B1F60E070E0CB010E942F0E0E94D0
:100770003D0E08958630B8F46A30A8F4463098F4F7
:1007800050E096E0699F400D511D1124FA019CE351
:10079000899FE00DF11D1124EE0FFF1FE455FF4F5F
:1007A00085919491089580E090E008950E94BA03A5
:1007B000089581E0089581E008950E94DB03089583
:1007C00008950E94E0030895A5E0B0E0EAEEF3E0AA
:1007D0000C94EE2F49835A833091FD0189819A81CF
:1007E000311119C0662399F0222389F00E94FE0975
:1007F000182F682F89819A810E94DA0969817A818C
:10080000812F0E945D102596E3E00C940A300E942F
:10081000EC09182FF3CF0E94FE0969817A81F1CF8C
:10082000FC01262F408151816281738184810E9465
:10083000E403089581E00895CF93DF93EC0160E035
:100840000E941004BE010E94E103DF91CF91089540
:100850000E94C01108950E94C411089508950E9435
:10086000A9080E942E042FEF84E39CE021508040D1
:100870009040E1F700C0000008950E942F040E94FC
:10088000742808950E942F040E94982808950F93B9
:100890001F93CF93DF938C0161E00E941004EC0161
:1008A000B8010E94DD03811106C080E0DF91CF9185
:1008B0001F910F910895B801CE010E94EF21882366
:1008C000A1F3B801CE010E948A24882371F3B801F4
:1008D000CE010E942023882341F3B801CE010E945B
:1008E000FC23882311F3B801CE010E948B208823BA
:1008F000E1F2F8018281882361F0C330FCE7DF0771
:10090000E9F058F4C115ECE7DE07A9F0C130DC4787
:10091000B9F0C8010E94D903C9CFCB358CE7D807FD
:10092000A9F0CC35ECE7DE0771F0CA35DC4789F772
:100930000E94000EEECF0E943D04B7CF0E94080E29
:100940000E944204B2CF0E94F60DE3CF0E94040E33
:10095000E0CF0E948A2780E00E9424220E94D804CF
:1009600008950E941B210E94DC040E948F27089595
:1009700008950E94B804089581E008950895CF93E2
:10098000DF93D82F0E94BC04C82F882319F08D2F25
:100990000E94BE048C2FDF91CF9108950895CF93CC
:1009A000C82F0E94B9048C2F0E94BF04CF910895D4
:1009B00080E00E94CF0408950E9492260E94CF04F6
:1009C0000895CF930E949226C82F8091F8018C172A
:1009D00079F0C093F8010E9419286093F90170938F
:1009E000FA018093FB019093FC018C2F0E94CF04AD
:1009F000CF910895ABE0B0E0E0E0F5E00C94EF2F8C
:100A00004F83588769877A878B8761110E94410DD0
:100A10001E821D8285E0FE013796DE01119601904F
:100A20000D928A95E1F78C819D81892B61F4498132
:100A30005A816B817C818D819E810E946A0C2B96EC
:100A4000E2E00C940B3089819A8189238F3F79F3FE
:100A5000CE0101960E941A048111E9CFF0CFFC016A
:100A6000808191810E94300A0895662329F00E94B6
:100A7000AD160E94801708950E940717FACFCF93F2
:100A8000C82F8823C9F08238C9F40E94922681FDBC
:100A900013C089E30E94F90C0E94620D2FEF87EECC
:100AA00093E0215080409040E1F700C0000089E3CE
:100AB0000E94010D0E94620DCF9108958338A1F428
:100AC0000E94922680FDF8CF83E50E94F90C0E94D7
:100AD000620D2FEF81EE94E0215080409040E1F7CD
:100AE00000C0000083E5E4CF8438A1F40E94922680
:100AF00082FDE2CF87E40E94F90C0E94620D2FEF85
:100B000081EE94E0215080409040E1F700C0000069
:100B100087E4CECF8CEF8C0F813A90F46C2F8091CC
:100B20000401909105010E941B27882329F08C2F36
:100B30000E94010D0E94620D8C2F0E94F90CBACF09
:100B400080E28C0F883048F4C77081E001C0880FC4
:100B5000CA95EAF70E94240DADCFEBE5EC0FE33028
:100B600040F4F0E0EB57FE4F808190E00E94BF26FA
:100B7000A3CFE8E5EC0FE93150F4F0E0EE0FFF1FF2
:100B8000ED5AFE4F808191810E94E42695CF83E348
:100B90008C0F833108F090CF61E08C2F0E943505D7
:100BA0008BCF882309F456C0823879F40E949226AC
:100BB00081FF50C089E30E94F90C0E94620D89E315
:100BC0000E94010D0E94620D0895833859F40E941D
:100BD000922680FF3FC083E50E94F90C0E94620DBF
:100BE00083E5EECF843859F40E94922682FF32C00A
:100BF00087E40E94F90C0E94620D87E4E1CF9CEF2C
:100C0000980F913AE8F290E2980F983050F487707C
:100C100091E001C0990F8A95EAF7892F0E942A0D69
:100C2000D1CF9BE5980F933028F490E080E00E94AC
:100C3000BF26089598E5980F993128F490E080E058
:100C40000E94E426089593E3980F933118F460E02E
:100C50000E94350508951F93CF93DF93182FEB0162
:100C60000E943F05209739F4812F0E94D105DF9122
:100C7000CF911F9108958FE99FE00197F1F700C090
:100C800000002197EFCF70E060E0893311F460E558
:100C900070E00E942B060895882321F00E94240D05
:100CA0000E94620D0895882321F00E942A0D0E945F
:100CB000620D0895B0E0A0E0E0E6F6E00C94E82FC5
:100CC0006C01D62FC72FFC011281F580F2949FE0B2
:100CD000F9220E941A0DE82E8823B9F0E12E112383
:100CE000A1F08C2F807F803421F080E28D0F88303E
:100CF000D0F080912C0382FF16C082E00E94C50DC7
:100D00000E941A0D91E0E82EE926BC2EB2948FE0E5
:100D1000B822FBE0FB1508F468C0EB2DF0E0E250D0
:100D2000FF4C0C94A82FE12CF0CF0C2F0F70C07F3C
:100D300011F00295007F112399F0002359F080E211
:100D40008D0F883010F0D11107C0802F0E94240D24
:100D50000E94620D8D2F41C0802F0E94340DF8CF6C
:100D60008D2F0E94D105002309F43FC080E28D0F32
:100D7000883010F0D11104C0802F0E942A0D03C0CA
:100D8000802F0E943A0D0E94620D2FC00C2F0F7011
:100D9000C07FC03211F00295007FDD2381F0D13099
:100DA00009F468C0112309F472C0FF2009F468C077
:100DB000F601858180FFCECF8F70858361C08091E1
:100DC0002C0382FD33C0112359F0002329F0802F1A
:100DD0000E94240D0E94620D80E00E943F0505C024
:100DE00080E00E94D1050111C7CFEB2DE850FF0B29
:100DF000349720F40E9492260E94CF04EE2089F0BE
:100E00000E94160D80FD0DC0F60112820E94100D89
:100E10000E943809C6010E9469080E94100D0E94B4
:100E20004809CDB7DEB7E9E00C940430112389F00E
:100E3000F11006C00E94440D802B0E944C06D5CFB5
:100E400021E0F212F7CF0E94440D802B0E944B0D3F
:100E5000CCCFF11006C00E94580D802F0E9453067F
:100E6000C4CF31E0F31609F2802F0E9453060E948E
:100E7000580DBBCF112331F085E08F1508F4B5CFA5
:100E8000802FDBCF94E09F1508F4AFCFE6CFFF2093
:100E900021F3D93349F4FFEF27EE33E0F15020403E
:100EA0003040E1F700C000008D2F0E94D1059DCF9A
:100EB0008C2F86958695837069F0813009F095CFE7
:100EC0008D2F9C2F9370111102C080E090E00E9442
:100ED000E4268BCF8D2F9C2F9370111102C080E0E0
:100EE00090E00E94BF2681CF612F8D2F0E94350593
:100EF0007CCF8C2F8370A1F5111177CF4D2F4295A8
:100F000046954770440F440F2D2F2F7030E0042E6C
:100F100002C0220F331F0A94E2F790E080E0D4FF72
:100F200009C08FE090E002C0880F991F4A95E2F750
:100F300080959095C695C695C370822B932BC23031
:100F400049F058F4C13019F00E9408094ECF0E94B0
:100F5000FF084BCF0E94110948CF0E94FC0845CFE3
:100F60008695112311F08C2F8170882309F43DCFD1
:100F70004D2F429546954770440F440F2D2F2F70EB
:100F800030E0042E02C0220F331F0A94E2F790E0F3
:100F900080E0D4FF09C08FE090E002C0880F991F65
:100FA0004A95E2F780959095C695C695C370822BB9
:100FB000932BC23049F058F4C13019F00E947309E4
:100FC00014CF0E946A0911CF0E947C090ECF0E94A3
:100FD00020090BCFCF70112329F08C2F0E943809E4
:100FE0008D2F2BCF8D2F0E9453068C2F0E944809E6
:100FF000FCCED23F51F160F4D03FB9F0D13F81F047
:10100000112309F449C0F110A5CE8C2F8F7121C096
:10101000D33F11F1D43FA1F780912C0382FD26C06C
:101020008C2F8F71112311F314C0112349F084E028
:101030008F1508F4DACE8C2F8F710E945A09D5CE05
:1010400095E09F1508F4D1CEF6CF8C2F8F7111113A
:10105000CDCF0E943809C9CE112329F08C2F8F7172
:101060000E942C09C2CE0E942709BFCE112349F04D
:10107000CF718C2F0E94380963E08C2F0E94A70D3E
:10108000B4CE81E00E94C50DE1E0EF1508F0ADCED1
:1010900082E00E94C50DA9CEF110FBCE8C2F8F717E
:1010A000A5CF0F931F93CF93DF93EC0168817981D4
:1010B0008A810E943B0A8C010E9485090E94FB08DC
:1010C000B801CE010E945A06DF91CF911F910F9176
:1010D0000895CF93DF93EC018B819C81892B29F0BC
:1010E0008881998189238F3F51F4DF91CF910895B1
:1010F000CE010E945108CE010E941C04F6CFCE0101
:101100000E9447048111F4CF0E941A0D882369F3CD
:101110008A81882351F380912C0382FFE6CF82E0FD
:101120000E94C50DE2CF90E080E00E94BF2690E0D3
:1011300080E00E94E4260E94410D0E94620D0E9400
:101140009C170E94801708950E94090D0E94930821
:1011500008950E94310D0E94A408089592959F70F1
:10116000963091F058F4925F9F70923058F4803F1F
:1011700019F030F4883E30F481E008959A5FF4CF9E
:10118000843FD1F380E00895883EB0F3813FD1F7EA
:10119000F3CFFC0183819481892B29F08081918197
:1011A00089238F3F11F480E00895808191810E940E
:1011B000300A0E94AE080895A5E0B0E0E2EEF8E043
:1011C0000C94EF2F2596E2E00C940B30A6E0B0E0F3
:1011D000ECEEF8E00C94EF2F2696E2E00C940B3046
:1011E00008950E94F00808950E94F108909321024A
:1011F00080932002089508950E94F4080895209194
:10120000200230912102822B932B0E94F408089532
:101210002091200230912102822393230E94F4081E
:1012200008952091200230912102822793270E9465
:10123000F40808950E94F00808950E941A0908957C
:101240000E941D0990931F0280931E02089590E052
:1012500080E00E942009089521E030E0A90102C049
:10126000440F551F8A95E2F7CA010E94200908958C
:1012700021E030E002C0220F331F8A95E2F780910F
:101280001E0290911F02822B932B0E942009089529
:1012900021E030E002C0220F331F8A95E2F720954B
:1012A000309580911E0290911F02822393230E9409
:1012B0002009089521E030E002C0220F331F8A95F3
:1012C000E2F780911E0290911F02822793270E94CD
:1012D0002009089520911E0230911F02822B932B2A
:1012E0000E942009089520911E0230911F0282233E
:1012F00093230E942009089520911E0230911F021D
:10130000822793270E94200908950895262F277089
:1013100091E001C0990F2A95EAF723E07695679549
:101320002A95E1F7660F771F660F771FFA01E60F20
:10133000F71F50E040E0682F70E08191DF011197C6
:101340009B01042E02C0369527950A94E2F721707E
:1013500021952827292328272C934F5F5F4F44305E
:10136000510559F70895A82FA77023E09695879502
:101370002A95E1F7880F991F880F991FFB01E80F45
:10138000F91F50E040E080E0219130E00A2E02C0D9
:10139000369527950A94E2F721703327042E01C071
:1013A000220F0A94EAF7822B4F5F5F4F44305105BA
:1013B00059F70895262F9A3070F4863060F4682F1C
:1013C00070E086E0989F600D711D11244EEF51E092
:1013D000822F0E9486090895292F9A3068F486305A
:1013E00058F490E06EEF71E036E0239F800D911D80
:1013F00011240E94B309089580E00895B0E0A0E0B0
:10140000E4E0FAE00C94E82F7C0100911E021091B8
:101410001F028091200290912102082B192BCFE00E
:10142000D0E0CC24C394D12CBC2EC6010C2E02C01B
:10143000880F991F0A94E2F780239123892B49F49E
:10144000219790F7B12C8B2DCDB7DEB7E9E00C9446
:101450000430B7018C2F0E946910019789F3F3CFF4
:10146000CF93DF93EC010E94FE09BE010E94691038
:10147000DF91CF9108951F93CF93DF93EB0190916C
:10148000FD01992339F0CB010E94300ADF91CF9101
:101490001F910895882369F0CB010E94FE09182F3F
:1014A000682FCE010E94DA09BE01812F0E946910C7
:1014B000EDCFCB010E94EC09182FF6CF1F93CF93ED
:1014C000DF93C091220216E0809123028C1304C0A6
:1014D000DF91CF911F910895D0E01C9FF0011D9FD7
:1014E000F00D1124EC5DFD4F4081518162817381CB
:1014F000848195810E94E6082196C770E5CF4091CE
:101500005402509155026091560270915702809199
:101510005802909159020E94E60808951F93CF93B4
:10152000DF9380915902807F09F049C08091560273
:10153000882309F444C080912202C0912302609163
:10154000540270915502A0915702B0915802D62FC3
:10155000D72316E0C81799F190E0109711F0DF3FFC
:1015600019F401968770F6CF189F9001199F300DDE
:101570001124F901EC5DFD4F41814713F2CF408109
:101580004613EFCF42814111ECCF438154814A1B76
:101590005B0B483C510528F7809159028F708061A0
:1015A00080935902F901E75DFD4F80818F70806162
:1015B000808384E592E00E9469080E945E0ADF91C0
:1015C000CF911F910895A1E1B0E0E9EEFAE00C940B
:1015D000E72F8C0185E0F801DE011D9601900D9248
:1015E0008A95E1F7F801E28084E5C82E82E0D82EE2
:1015F00060915702709158026115710509F44EC14E
:101600009091540220915502892F82238F3F09F433
:1016100045C140815181A380B480F0905602F5010C
:10162000E61BF70BFF2009F4EAC080915902382F1E
:10163000307FE83CF10508F0A3C031116DC0FE2CED
:10164000251316C0941314C0E11012C08F7080616E
:10165000809359020E947F0AC6010E946908809106
:101660005902F80185838F2D6196EAE00C940330CE
:10167000A114B10429F0842F85238F3F09F027C1DD
:1016800080E0F82FF170DF2E80FF3CC080912202B5
:101690002091230236E0821315C04D875E878D8529
:1016A0009E850E94300A292F22952F702230F0F05B
:1016B000243018F59F70F1F0F8019581907FD1F4F6
:1016C000D12C1EC090E0389FF001399FF00D1124FD
:1016D000EC5DFD4F6181651306C06081641303C03A
:1016E0006281E6120FC001968770D5CF9F7011F00E
:1016F000882331F3805E883018F3C8010E9469089E
:10170000FD2CB1CFEE2009F4AECF8091590281605B
:1017100080935902F12CA7CF251306C0941304C05F
:10172000F801EE2009F487C0C8010E94C908882387
:1017300019F1EE2009F180915902803270F0209168
:1017400054023091550238872F831986BB86AA86AA
:101750008C87CE0107960E94690886E0F801A4E50F
:10176000B2E001900D928A95E1F70E948E0A0E94E4
:101770007F0AFF24F39477CFC8010E946908F9CF4C
:10178000311113C07A2DB98AA88A6E2D89890E94D9
:10179000DC0884E592E00E94690886E0F601119277
:1017A0008A95E9F70E947F0AB5CF25130FC09413DD
:1017B0000DC0E1100BC0F8018583C8010E946908C3
:1017C00086E0F60111928A95E9F74DCFC8010E9493
:1017D000C908882389F2EE2079F28091590280327B
:1017E00008F4BBCF20915402309155023A832983EB
:1017F0001B82BD82AC828E83CE010196ACCFE83CC9
:10180000F10508F03EC0FE2CEE2009F4B5CF2513FB
:101810002AC0941328C08091590280FD1BC0982FC4
:10182000907FC1F0F8018583903F31F0982F907F31
:10183000905F8F70892B8583C8010E94690886E0BC
:10184000F801A4E5B2E001900D928A95E1F70E94BB
:101850007F0A09CF86E0F801A4E5B2E001900D927D
:101860008A95E1F700CFC8010E94C908811175CFA0
:1018700080915902816080935902C8010E946908D1
:10188000F2CE7A2DB98AA88A6E2D89890E94DC0849
:1018900086E0F60111928A95E9F7D9CFEE2009F496
:1018A0006BCFC8010E94C908F82E882309F464CFC1
:1018B00086E0F801A4E5B2E001900D928A95E1F787
:1018C00084E592E00E942F050E948E0AC0CF81E03D
:1018D0008E25D7CEACE0B0E0E0E7FCE00C94EE2F34
:1018E0004F83588769877A878B879C87CE010796B5
:1018F0000E94E30A882369F08A859B85892B39F049
:101900004F815885842F85238F3F09F06BC016E0E7
:101910005FC086E0FE013796DE01119601900D92C0
:101920008A95E1F78A859B85892B89F388859F8134
:1019300089238F3F61F32091230230E0C901019692
:1019400087709927409122024817190671F40E9466
:10195000A908109223021092220286E0E4E5F2E048
:10196000DF011D928A95E9F7D2CF96E0929FD001D0
:10197000939FB00D1124AC5DBD4FFE0131960190D7
:101980000D929A95E1F7809323020E945E0ABFCFE1
:10199000819FC00111248C5D9D4F0E94E30A882322
:1019A000E9F0E09122021E9FF0011124EC5DFD4F51
:1019B0004081518162817381848195810E94E60812
:1019C0008091220290E001968770992780932202ED
:1019D00080912202909123028913DACF2C96E3E0C2
:1019E0000C940A3069857A858B859C850E94E6086F
:1019F0008ECF682F80910401909105010E9451279C
:101A00000895682F80910401909105010E94542748
:101A1000089580910401909105010E94572708952F
:101A200080916202859585958595089580916202E1
:101A30008770089590916202977081E009F480E0C8
:101A4000089580916D02089590916D02892B809385
:101A50006D020895809590916D02982390936D0288
:101A6000089510926D02089590916C02892B8093D5
:101A70006C020895809590916C02982390936C026B
:101A8000089510926C02089580916302089508955C
:101A90000E94470D089590912C0392FF08C09091E9
:101AA0006302981721F0809363020E94480D089505
:101AB00080916302882329F01092630280E00E94E3
:101AC000480D0895CF93DF93E0910401F091050153
:101AD00080916D028083E0910401F0910501808185
:101AE00090916C02892B808390916302992381F0FD
:101AF000E0910401F09105018081892B8083809120
:101B00000401909105010E94092781110E94580D3E
:101B1000C0910401D091050148E050E06AE572E00F
:101B2000CE010E947F30892B59F088E0FE01AAE5A2
:101B3000B2E001900D928A95E1F7CE010E94A626AF
:101B4000DF91CF91089508950E94A30D089590917B
:101B50002C0392FF11C098E0899F90011124622B01
:101B6000609362020E943809809162028595859592
:101B700085950E94A40D08950E9438090895109239
:101B8000620280E00E94A40D089590916202809507
:101B9000892380936202282F277091F4282F082E22
:101BA000000C330B9217130659F090912C0392FFFF
:101BB00007C08595859585950E9448090E94BF0DAF
:101BC000089590912C0392FB222720F9281769F0A1
:101BD00080FB92F990932C0380912B0390912C031E
:101BE0000E94290E82E00E94C50D089580912C0369
:101BF00082FB882780F991E089270E94E10D0895F2
:101C000081E00E94E10D089580E00E94E10D0895B9
:101C10006FEF7FEF90E080E00E94C730089590E082
:101C200080E00E94A33021E0873E9E4F09F020E033
:101C3000822F089582E090E00E949530089583E01D
:101C400090E00E949530089584E090E00E94A330D7
:101C50000895BC0184E090E00E94C7300895AB0174
:101C6000BC018FE090E00E94BB300895AB01BC0145
:101C700083E190E00E94BB30089560E070E0CB010A
:101C80000E94360E089567EE7EEF90E080E00E949D
:101C9000C73060E082E090E00E94A93060E083E01D
:101CA00090E00E94A930109221021092200260E080
:101CB00074E184E090E00E94C73060E086E090E04C
:101CC0000E94A9306FEF87E090E00E94A93040E0C9
:101CD00050E0BA0188E090E00E94BB3060E08DE007
:101CE00090E00E94A93040E050E0BA0188E190E025
:101CF0000E94BB3060E087E190E00E94A93040E0A4
:101D000050E0BA018CE190E00E94BB3070E060E0EE
:101D100080E290E00E94C73040E050E0BA0188E1E4
:101D200090E00E94BB300E94A30308950E94430EDE
:101D30000895682F8EE090E00E94A93008950E94D7
:101D4000192860937E0270937F02809380029093A3
:101D5000810260937A0270937B0280937C0290935D
:101D60007D020895089508950E94B30E0895089580
:101D70000E94B70E08958EE991E10E9488260E9484
:101D8000B20E0E94B40E08950E946F130895089534
:101D900008950E94C70E0E94C80E08950E94A111C6
:101DA0000E94CE040E94CB2208950E9404280E9423
:101DB00053110E9487130E94CB120E94CE0E0E94E4
:101DC00008230E941B210E94361F0E94A3130E9419
:101DD000B80E0895AAE0B0E0E0EFFEE00C94E72F23
:101DE0000E94EE1280E7A82E82E0B82E750110E066
:101DF000F70101917F01812F0E94C7111F5F1A30E7
:101E000009F440C00817A1F38091820281FD0E946D
:101E1000CD110E94C40EC82E10E0812F0E94C71160
:101E2000082FF50181915F01081731F1F12CEE24A3
:101E3000E394D02ED8268D2D8E21B1F0CC20A1F0A8
:101E4000FE821F8391E0802F8E2109F490E0988715
:101E50000E940D288160782F9A8789874E815F8143
:101E600068858A850E94FA04F394EE0CF6E0FF126E
:101E7000E2CFF501319700831F5F1A3071F60E949F
:101E80009F0E20C00813C0CF0E940D288C018091A6
:101E90006E0290916F0208171907A1F08FEF8983E6
:101EA0008A831B820E940D288160782F9D838C83FA
:101EB00049815A816B818D810E94FA0410936F02CF
:101EC00000936E020E946F130E94A31F0E94CA22F9
:101ED0000E94BE170E94E1042A96EAE00C940330A7
:101EE000CF93DF930E946E10EC01811520E59207DD
:101EF000D0F5811530E4930708F086C0803E910547
:101F000018F58D3C910508F07DC0883A910570F474
:101F1000853A910508F06EC08130910501F1009776
:101F2000F1F00497E0F4D0E0C0E019C0813C9105E5
:101F3000D0F7C85AD0E0CC0FDD1FC857DE4F09904C
:101F4000D881C02DD4640BC08115904208F0A8C080
:101F5000C11581E0D80718F4C83ED10520F7CE019D
:101F6000DF91CF910895803622E5920710F58034F5
:101F700032E5930708F052C08032924508F047C01E
:101F8000C11582E5D80708F47DC02C2F269526952B
:101F900040E2249F900111248C2F8370C1E0D0E097
:101FA00002C0CC0FDD1F8A95E2F7C22BD32BDD6870
:101FB000D6CF803A22E5920760F4803832E5930765
:101FC00008F441C0CF71D0E0DC2FCC27C46FD06AB9
:101FD000C6CF803C42E5940708F449C0C03E82E584
:101FE000D80708F0A0CFDC2FCC27CC27DF71C06F3B
:101FF000D06AB5CFC55AD0E0C654DE4FC881D0E014
:10200000D064ADCFD065ABCFDF70D06AA8CFCF7131
:10201000D0E0DC2FCC27C16FD06AA1CF282F269526
:102020002695277080E2289F900111248C2F8370C1
:10203000C1E0D0E002C0CC0FDD1F8A95E2F7C22BD1
:10204000D32BDC688CCF282F26952695277040E26D
:10205000249F900111248370C1E0D0E002C0CC0F16
:10206000DD1F8A95E2F7C22BD32BDA6878CF8F7108
:102070000E941011C82FD0E0DC2FCC27CC27DF71B5
:10208000D0626DCF8C2F8F710E94101135E0D695E4
:10209000C7953A95E1F7CF709C2FEC01D0695FCFDF
:1020A0008D2F8F710E94101190E0982F882788271C
:1020B0009F719C012C2BE901E3CF462F7A3030F43D
:1020C000663020F4672F0E94D603089590E080E0E8
:1020D00008950E945D100E94700F08958238910546
:1020E000B9F1B0F48133910509F47DC048F4893227
:1020F000910509F46DC08A32910509F47BC00895F9
:102100008533910509F45FC08933910509F108957C
:10211000833E9105D9F138F4803E910529F1823E44
:10212000910579F10895863E9105D9F1873E910593
:1021300009F43EC0843E910541F520912C0321FF16
:1021400024C080912B0384FD19C087EE90E0089590
:1021500020912B03237009F05AC020912C0323FFF8
:1021600014C089E290E0089520912B0320FD38C02F
:1021700030912C0330FF09C024FF43C090E080E081
:10218000089520912B0322FDF7CF089520912B0372
:1021900022FD3AC030912C0330FD39C024FFF5CF29
:1021A000EDCF20912B0323FFF0CF24FDE7CFCDCF40
:1021B00020912B0323FD2EC030912C0331FFEECF55
:1021C00084EE90E0089520912B0325FFDECFC9CF48
:1021D00020912B0325FD21C020912C0323FFD5CF77
:1021E00089E390E0D2CF20912B0326FFCECF8AE265
:1021F00090E0089520912B0326FFC7CF81E390E064
:10220000089583EE90E0089582EE90E0089580EEC8
:1022100090E0089586EE90E0089585E390E00895BB
:1022200090912B0392FF06C0282F28712830F9F4D3
:10223000877F846093FF06C0282F28712831F1F42E
:10224000877E846120912C0320FF06C0382F3871CF
:102250003830D9F4877F816021FF06C0282F28718C
:102260002831D1F4877E816194FD877E0895282FDF
:1022700024712430F9F68B7F8860DCCF282F2471FD
:10228000243101F78B7E8861DDCF382F31713130F9
:1022900019F78E7F8860E0CF282F2171213121F737
:1022A0008E7E8861E1CF109227031092280310924E
:1022B000290310922A030895CF92DF92EF92FF92A2
:1022C0006B017C010E946F1381110EC00E941928BE
:1022D000C61AD70AE80AF90AC0922703D09228033F
:1022E000E0922903F0922A03FF90EF90DF90CF90C5
:1022F00008950F931F930E946F13882329F00E9463
:1023000019281F910F9108950E9419280091270301
:10231000109128032091290330912A03600F711F27
:10232000821F931FEECF0E946F13882319F00E9423
:102330000D2808950E947911CB01089580E0089539
:1023400008950E940F0E811102C00E94960E0E94F5
:102350001A0E809382020E94240E90932C03809385
:102360002B030E94A0110E941F0E90E00E94FC0807
:1023700080911E0290911F020E941D0908950895E8
:102380000E94BF11089508950E94C3110895E82F77
:10239000F0E0E85CFC4F80810895089580EA8A951A
:1023A000F1F7089500C008950E94CE110895089590
:1023B0000E94D7110895A5E0B0E0E1EEF1E10C94A0
:1023C000EB2F0E946F13F82E60914203882309F4CB
:1023D00040C085E0E82E8E010F5F1F4FF8018E2D63
:1023E00011928A95E9F7862F90E0B801885C9C4F9E
:1023F0000E94B1138823B9F080912D0390E045E04D
:1024000050E0B801885C9C4F0E947F3021E020930F
:102410008302892B91F4F12C0E942B048F2D259699
:10242000E6E00C940730809183028823A1F3F80141
:102430001192EA94E9F710928302A0912D03B0E083
:10244000A85CBC4F85E0F80101900D928A95E1F7F8
:10245000E3CF70E0685C7C4F80912D0390E0885C56
:102460009C4F0E9438140E94D811D8CFF894E82FBE
:10247000E295EF70F0E031A1282F2F7081E090E01D
:1024800001C0880F2A95EAF7982F9095932391A37E
:1024900092A1892B82A3789408950F931F93CF93D1
:1024A000DF93C3ECD1E089918F3F11F00E94361287
:1024B00081E0C83CD807B9F7CDEBD1E003EC11E0DF
:1024C00089918F3F11F00E9436120C171D07C1F73A
:1024D000DF91CF911F910F910895B0E0A0E0E3E765
:1024E000F2E10C94E92FEC01D62E062F10E0C80182
:1024F0008D539E4F7C01FC0180818F3F09F444C0C5
:10250000F894E82FE295EF70F0E091A18F7021E050
:1025100030E001C0220F8A95EAF7892F822B81A330
:1025200082A12095282322A378940E94D211EDEB5A
:10253000F1E031E0C12C21912F3F59F1A22FA2955A
:10254000AF70B0E090968C9190E02F7002C095959E
:1025500087952A95E2F780FD1CC0832FC82A330F88
:1025600081E0E33CF80739F7F70180818F3F11F0F4
:102570000E94361261E0C11001C060E08D2D0E9402
:10258000D411C00FD11FC882CDB7DEB7E8E00C94DC
:10259000053080E0E3CF809106018091060195E04F
:1025A000811190E09093420385E0891B80932D0375
:1025B0000E944D128AE0E8E3F3E0DF01982F1D92BC
:1025C0009A95E9F7EEE2F3E0DF011D928A95E9F7CB
:1025D00085E00E942C130E9428040895AAE0B0E030
:1025E000E4EFF2E10C94EC2F8E010F5F1F4F8AE0B5
:1025F000F80111928A95E9F7F12C6F2DC8010E941C
:102600006D12F394F5E0FF12F8CF4AE050E0B80104
:102610008EE293E00E947F3021E0009709F420E0F1
:10262000892B41F08AE0F801AEE2B3E001900D920F
:102630008A95E1F76091420370E0685C7C4F45E069
:102640008EE293E00E942D13182F0E94DB11812B44
:102650002A96E5E00C9408300895CF92DF92EF922D
:10266000FF920F931F93CF936C017B01042F2223C2
:1026700049F081E0809386020E940D2890938502A4
:1026800080938402C0918602C1110AC0C0E08C2FE1
:10269000CF911F910F91FF90EF90DF90CF90089511
:1026A00080918402909185020E942528059770F3FD
:1026B00010E0A801B601C7010E947F30892B41F0CC
:1026C000A801B601C7010E948C3010928602DFCFAC
:1026D000C0E0FBCF89B185FB882780F90895809100
:1026E0008902811107C00E94272F882351F081E0C1
:1026F0008093890281E090918902913009F080E015
:10270000089582E0809389020E94222FF3CF55988A
:102710005D988FE891E00197F1F700C000000E94FA
:102720006A13809306018091060166E0882349F0D0
:1027300080E00E9452190E946F1381110E94E713DA
:10274000089586E0F6CF0E946F13811102C00E94A7
:10275000EA13089581E090918A029A3008F080E0AF
:1027600008950F931F93CF93DF93EC018B0180911A
:102770008A028A30B8F4B801CE010E943514C82FFD
:10278000811122C080918A028F3FB9F40E940D28E6
:1027900090938802809387028C2FDF91CF911F91B5
:1027A0000F91089580918702909188020E942528B8
:1027B000843F914000F7C0E0EFCF8F5F80938A02A3
:1027C0008A3020F7C1E0E8CF10928A02E5CF0E945C
:1027D000262508950E9429250895B0E0A0E0E3EFA2
:1027E000F3E10C94EA2F7901C82F880FDD0B411516
:1027F0005105A9F0FE0193E0EE0FFF1F9A95E1F756
:10280000E95FFE4F8181928185579D4F208130E0A5
:102810004217530708F49A01A9010E948C30CE0197
:102820000E941226D82E8823D1F001151105B9F087
:1028300083E0CC0FDD1F8A95E1F7FE01E95FFE4FD3
:10284000438150E00417150708F4A801C95FDE4F63
:102850006C817D8165577D4FC7010E948C308D2D25
:10286000CDB7DEB7E7E00C9406300E94A3150895BB
:102870000E94CC150895A4E0B0E0E1E4F4E10C94EA
:10288000ED2F6091AB027091AC028091AD029091FE
:10289000AE020E94342811E064367105810591056D
:1028A00018F10E9479116E5F7F4F8F4F9F4F6983A0
:1028B0007A838B839C8310E000E030E020E044E0EA
:1028C00050E0BE016F5F7F4F82E00E94ED13182F32
:1028D000882351F00E9419286093AB027093AC02D8
:1028E0008093AD029093AE02812F2496E4E00C9485
:1028F0000930B0E0A0E0EFE7F4E10C94E72FC82F37
:102900007B01D42F69015801FB01608171818281B3
:1029100093810E943428643671058105910510F475
:10292000DD23C9F010E000E030E020E0A501B601B1
:102930008C2F0E94ED13C82F882339F00E9419288C
:10294000F70160837183828393838C2FCDB7DEB7C9
:10295000EAE00C940330C1E0F8CFA8E0B0E0E3EB8C
:10296000F4E10C94ED2FCE0101960E94641E41E02B
:102970008885811101C040E008E010E09E012F5FD2
:102980003F4F63EB72E084E00E947914182F8111AD
:102990000E94611E812F2896E4E00C940930A1E08A
:1029A000B0E0E5EDF4E10C94ED2F0E94FD208823CA
:1029B000D1F00E9415218983E091C801F091C901ED
:1029C00041E09285981301C040E001E010E09E01D3
:1029D0002F5F3F4F6FEA72E083E00E9479142196E7
:1029E000E4E00C94093080E0E6CFB0E0A0E0EBEF4B
:1029F000F4E10C94E72F7C015B016A010E94AA13A9
:102A000001E010E0882311F00AE010E0C1E0D0E01E
:102A1000B501C701F6010995811104C021960C1773
:102A20001D072CF4CDB7DEB7EAE00C940330CC9F41
:102A30009001CD9F300D300D112490E080E045E3F2
:102A40004A95F1F70000019682179307C1F7E0CF8E
:102A5000A6E0B0E0EEE2F5E10C94E72F7B01C09038
:102A6000C801D090C90101E010E09E012A5F3F4FEC
:102A700050E040E070E060E080E00E94ED13182F2D
:102A8000882309F448C056018FEFA81AB80A60914C
:102A9000A7027091A8028091A9029091AA020E94B7
:102AA0003428643671058105910568F105E010E070
:102AB0009E012F5F3F4F50E040E070E060E081E01A
:102AC0000E94ED13D82E65E070E0C5010E94092335
:102AD00011E09E81981310E01D2141F10E941928F8
:102AE0006093A7027093A8028093A9029093AA0210
:102AF00085E0FE013196A2EAB2E001900D928A953E
:102B0000E1F711E013C065E070E0C5010E94092300
:102B10009E818913CBCF85E0F6013196DE011196B7
:102B200001900D928A95E1F71111E2CF85E0E2EA7A
:102B3000F2E0D70101900D928A95E1F7812F269658
:102B4000EAE00C9403300F931F93CF93DF93EC01D3
:102B50008B0148E255E10E94F514811106C080E026
:102B6000DF91CF911F910F9108954BE354E1B8018C
:102B7000CE010E94F514882391F34FEC54E1B80183
:102B8000CE010E94F514882351F34DEA54E1B801B7
:102B9000CE010E94F514E4CFA8E0B0E0E2EDF5E14B
:102BA0000C94E92F0091C8011091C901C801019648
:102BB00025E0FB01DC0101900D922A95E1F765E02B
:102BC00070E00E940923F801808366817781808507
:102BD0009185C0909E02D0909F02E090A002F0905C
:102BE000A1026C157D058E059F0551F060939E0234
:102BF00070939F028093A0029093A1020E945C11A7
:102C0000F80182850E94242288E0F8013B96DE01CB
:102C1000119601900D928A95E1F7F801128A888544
:102C2000882329F060E0CE0101960E946E1F28964D
:102C3000E8E00C9405300E94FD290E94D50E0E9408
:102C40000A2A08950E940F2A0E94EA0E0E94292A49
:102C500008950E94A6270E94E3290E94BB0E0E94AD
:102C60001B160E9422160E94C90EFBCF8091BD0246
:102C700080FF0DC06091340170E0660F771F6038EF
:102C8000710570F56115710569F1862F089581FF51
:102C900007C06091340184E0689FB0011124EFCF38
:102CA0006091340182FD0AC08091BC028823A9F0A2
:102CB0002091330160913401821710F088E0ECCF4D
:102CC000869FC001112433E0880F991F3A95E1F7E0
:102CD000622F70E00E94722FD2CF68E070E0D5CFF3
:102CE0008FE7089581E008958091BD0280FF0CC0B8
:102CF0006091300170E075956795759567956115E0
:102D0000710549F1862F089581FF06C06091300159
:102D100070E075956795F3CF6091300182FD0BC02F
:102D20009091BB029923A1F060912F018091300115
:102D3000961738F0682F70E06038710500F38FE760
:102D40000895899FC001112470E00E94722FF4CF72
:102D500061E070E0D7CF81E008958D3C31F40E94AE
:102D6000361681958093C10208958E3C19F40E9415
:102D70003616F8CF8F3C31F40E9436168195809339
:102D8000C0020895803D19F40E943616F8CF893D9F
:102D900029F40E9474168093C20208958A3D21F49A
:102DA0000E9474168195F7CF8B3D31F40E94741602
:102DB00081958093C30208958C3D19F40E94741686
:102DC000F8CF9FE2980F983070F4815D990B21E065
:102DD00030E001C0220F8A95EAF78091BF02822B72
:102DE0008093BF0208958D3D31F48091BD028160D2
:102DF0008093BD0208958E3D21F48091BD028260D2
:102E0000F7CF8F3DB9F78091BD028460F1CF40913B
:102E1000C0028D3C59F48091C10287FF0DC0109211
:102E2000C10241110BC01092BC0208C08E3C81F45B
:102E30008091C10218169CF3442381F08091C20254
:102E40009091C302892B09F05AC01092BB020895D9
:102E50008F3C49F447FFF0CF1092C0028091C1022D
:102E60008111ECCFE0CF803D19F41416ACF3E4CF20
:102E70009091C202893D29F41916F4F61092C2020B
:102E8000DBCF8A3D19F497FFD7CFF8CF9091C302DB
:102E90008B3D29F497FFD0CF1092C302CDCF8C3D4C
:102EA00019F41916CCF3C8CF9FE2980F983090F41C
:102EB000815D990B21E030E0B90102C0660F771FF8
:102EC0008A95E2F7CB0180959091BF028923809388
:102ED000BF02B2CF8D3D31F48091BD028E7F8093D1
:102EE000BD02AACF8E3D21F48091BD028D7FF7CF28
:102EF0008F3D09F0A1CF8091BD028B7FF0CF089567
:102F00000E940D289C019091C0028091C102982BD3
:102F100021F03093BA022093B9029091C2028091BD
:102F2000C302982B21F03093B8022093B7028EEBA6
:102F300092E00E94B126089586E0EEEBF2E0DF0118
:102F40001D928A95E9F71092BC021092BB02109272
:102F5000BD020895FC01828181110EC0838181111F
:102F60000BC08481811108C091E08581811101C06D
:102F700090E0892F8170089581E0FCCFA6E0B0E059
:102F8000E4ECF7E10C94EE2F86E0EEEBF2E0DE01EC
:102F9000119601900D928A95E1F71092C00210925D
:102FA000C1021092C2021092C3028B819C81892BB4
:102FB00089F08091B9029091BA020E942528AC0153
:102FC0009091BC029923C9F18091350184171506AF
:102FD00008F440C08D819E81892B91F08091B702C9
:102FE0009091B8020E942528AC019091BB029923D0
:102FF00009F471C0809131018417150608F479C075
:10300000BE016F5F7F4F8EEB92E00E945E278111C1
:1030100005C08EEB92E00E94AA1781110E948017D2
:1030200086E0FE013196AEEBB2E001900D928A95FA
:10303000E1F72696E3E00C940A30209136018AE00D
:10304000289F900111242417350720F69F5F909345
:10305000BC0202C09F3FD1F71B81112359F00E948F
:1030600036169FEF11160CF491E0899F802D1124E4
:103070008093C0021C81112359F00E9436169FEFE5
:1030800011160CF491E0899F802D11248093C102C8
:103090003091C002332309F49DCF2091C102222335
:1030A00009F498CF45EB3403C0011124992359F05A
:1030B0009093C00245EB240390011124332339F08F
:1030C0003093C10287CF81E08093C002F3CF81E0CB
:1030D0008093C1027FCF209132018AE0289F900126
:1030E00011242417350708F08BCF9F5F9093BB0204
:1030F00002C09F3FD1F71D81112359F00E94741621
:103100009FEF11160CF491E0899F802D112480937C
:10311000C2021E81112359F00E9474169FEF1116EE
:103120000CF491E0899F802D11248093C30230918B
:10313000C202332309F464CF2091C302222309F48D
:103140005FCF45EB3403C0011124992359F09093CC
:10315000C20245EB240390011124332339F030934C
:10316000C3024ECF81E08093C202F3CF81E080930F
:10317000C30246CFEF92FF920F931F93CF93DF933B
:10318000EB01E82FD1110EC0442321F0F0E0EA5604
:10319000FB4FE4916E2F7E2F8E2FCDB7DEB7E6E08A
:1031A0000C9407300D2F10E0282F30E0442329F035
:1031B0002A563B4FF901249130E0F6E0CF9FC00141
:1031C0001124EFEFF0E0BF010E945E2FAB018C2FC6
:1031D00090E0880F991FA5E5A49FB001A59F700DF1
:1031E0001124861B970B982F990F980FBF01601B16
:1031F000710B629FD001639FB00D729FB00D1124BF
:103200008B2F9D9FB0011124672F7727EF01C61BDD
:10321000D70BBE01629FE001639FD00D729FD00D5E
:1032200011247F01E91AF108E09EB001E19E700DC2
:10323000F09E700D1124672F7727E61BF70BE29F96
:103240008001E39F100DF29F100D1124E12F722FCA
:103250004230510599F048F44115510569F041306B
:10326000510581F0EB2F8D2F07C04430510569F0D7
:1032700080F046305105B1F76E2F8FCFE22F7B2FB4
:10328000812FFACFE22F7D2FF7CFEB2F822F712FD7
:10329000F3CF7B2F822FED2FEFCF41E00E94BA18A2
:1032A00008950895EAE3F1E08083618308950E9420
:1032B0004D190895CF93DF93762FE901682F842F5E
:1032C0000E945719798368838A83DF91CF9108958B
:1032D00080914303982F9E7F29F4817082608093B0
:1032E000430308958635E8F381708465F8CF88E05C
:1032F00090E00E949D300895CF92DF92EF92FF926E
:103300006B017C010E946819B701A60188E090E07A
:103310000E94BB30FF90EF90DF90CF900895E3E4E0
:10332000F3E083E0808311828FEF828383831482B2
:10333000ADE0B3E012968C911297836012968C9355
:1033400060817181828193810E947C1908958091AE
:10335000430380FF02C08695089580E00895909110
:103360004703933018F49F5F90934703882351F0ED
:10337000609143037091440380914503909146030B
:103380000E947C19089581E00E94AF1908959091E0
:103390004703992319F0915090934703882351F0E4
:1033A00060914303709144038091450390914603DB
:1033B0000E947C19089581E00E94C719089570E069
:1033C0000E94DC22089560913B018091430380FFBD
:1033D0000BC080913A0123E0829FC0011124885BD9
:1033E0009C4F0E94DF19089580913C0190913D010E
:1033F00023E0829FF0011124E85BFC4F891748F716
:103400001182108212828F5F3396F8CF909143031E
:1034100090FF0EC090913C0120913D0133E0939FBD
:10342000F0011124E85BFC4F921718F00E94E31999
:1034300008958183608342839F5F3396F5CFA3E035
:10344000B0E0E5E2FAE10C94EF2F9091430390FF96
:103450000AC09E012F5F3F4F0E945A194B8169811C
:103460008A810E94061A2396E2E00C940B30CF93D7
:10347000DF93EC01EC81F0E0EF56FC4F4491E3E484
:10348000F3E0628181810E941F1A8C818F5F8C839F
:10349000DF91CF910895CF93DF93EC01E3E4F3E064
:1034A000438162818C810E941F1A8C818F5F8C8383
:1034B000DF91CF910895A3E0B0E0E1E6FAE10C944A
:1034C000ED2F8C018091C40281110AC09E012F5FF3
:1034D0003F4F4FEF6FEF0E945A198A818093C402C9
:1034E000F8016481613069F08091C40240E0662394
:1034F00061F040E0623011F44091C40280E060E08D
:1035000004C06091C40240E080E00E94061AF80105
:10351000848190E0019663E070E00E94722F8483C2
:103520002396E4E00C940930A3E0B0E0EAE9FAE184
:103530000C94E82F082FD62EF42EC22E9091430320
:1035400090FF3CC020914403281308C0809145039C
:10355000861304C080914603841729F080910F03DD
:10356000826080930F03E92FE695AE2FB0E0A6535B
:10357000BE4F8C9180930D039E7F923019F59E0172
:103580002F5F3F4F4F2D6D2D802F0E945A194B8179
:1035900069818A810E94061A00934403D0924503F0
:1035A000F0924603CC2051F06091430370914403A4
:1035B00080914503909146030E947C192396E9E08F
:1035C0000C940430823019F4F0904603E5CF863035
:1035D000A1F1893091F18931F9F6E9516E2F6170CD
:1035E000B62EE695F0E0EF56FB4F1491E12C60917A
:1035F0003E01E61618F00E94E319CECFE19EC0010D
:10360000112470E00E945E2F802FB11014C0860F2D
:1036100020913C01622F6E0D7727771F9B01220FAF
:10362000331F260F371F285B3C4F4F2D6D2D0E94F7
:103630005A19E394DCCF861BEBCF022FADCFE3E426
:10364000F3E09181282F4381628188E0890F0E94F5
:10365000941A089581E00E941F1B0895E3E4F3E0AB
:103660009181282F4381628188EF890F0E94941AEB
:10367000089581E00E942E1B0895E3E4F3E0628147
:1036800021E1620F08F46FEF282F438181810E94AE
:10369000941A089581E00E943D1B0895E3E4F3E04D
:1036A000628121E1621B08F460E0282F438181815F
:1036B0000E94941A089581E00E944E1B0895E3E44D
:1036C000F3E0438121E1420F08F44FEF282F62819C
:1036D00081810E94941A089581E00E945F1B0895E1
:1036E000E3E4F3E0438121E1421B08F440E0282FAA
:1036F000628181810E94941A089581E00E94701B6A
:10370000089521E00E94941A089520E00E94941ADE
:103710000895EF92FF921F93CF93DF93EC0110E097
:10372000EE24EA94F12C60913E01161770F00E948D
:10373000E3199A818C8190FF27C08F5F8C83DF9182
:10374000CF911F91FF90EF90089520913C01422F5F
:10375000410F5527551FCA019A01220F331F280F09
:10376000391F285B3C4F70E0C7010E94722F962FD3
:103770008C814091460360914503199F800D11246F
:103780000E945A191F5FCFCF8150D8CFB0E0A0E080
:10379000ECECFBE10C94E52FEC018A81BB24BA949C
:1037A00080FD02C0BB24B3948C8181110AC081E0EA
:1037B000B81222C080913E0181508093C60281E000
:1037C0008C83A12C4CE0942E80913E01A816B8F079
:1037D0000E94E3198091C60291E0B91259C081118B
:1037E00052C080913E0181508093C6021C82CDB7A9
:1037F000DEB7ECE00C9401301092C602E0CF0091ED
:103800003C01CA2CD12C0C0D1D2D111DC801880F97
:10381000991F080F191F085B1C4FF80111821082B5
:10382000128234E0E32EF12C812C8091C602880DA7
:103830008D301CF1692D0E94502F892F082E000C0D
:10384000990BC816D90691F4809146038E9DA0016C
:103850008F9D500D11245595479555954795980185
:1038600060914503809144030E945A198B0CF1E04A
:10387000EF1AF108D1F6A394A7CF87FFDFCF90917D
:103880003E01890FDBCF81508093C602BC82AFCF4F
:1038900090E0019660913E0170E00E94722F80934B
:1038A000C6028C83A4CFEF92FF920F931F93CF9306
:1038B000DF93EC018C81811109C081E08C8310922F
:1038C000C50292E0909339018093380180913C01C8
:1038D00090913D0123E0829FF0011124E85BFC4FB1
:1038E000891758F110E003E060913E01161758F176
:1038F0000E94E319809138012091C502280F20937E
:10390000C50290913901980F90933901191654F41A
:10391000022E000C330B40913E014150550B2417F1
:10392000350734F0819580933801813009F41C8289
:10393000CDB7DEB7E6E00C94073011821082128218
:103940008F5F3396CDCFE12EF12C70E0C7010E943E
:10395000722F20913C01820F482F50E02091C50228
:10396000022E000C330BE216F306BCF02091390155
:10397000022E000C330B2E153F057CF0809F90012A
:103980001124285B3C4F4091460360914503809190
:1039900044030E945A191F5FA7CFFA01EE0FFF1FC1
:1039A000E40FF51FE85BFC4F118210821282F3CF07
:1039B000B0E0A0E0EEEDFCE10C94E52FEC014C81D1
:1039C000042F10E09801D8010E94B62F9B01AC0192
:1039D0000E94CC2F4B015C01E0E2F0E0E01BF10B18
:1039E000A5E5B0E0AC019B010E94CC2F6B017C01EE
:1039F0009F01DF010E94AE2F9B01AC010E94D72FD7
:103A00009B01AC01280D391D4A1D5B1DC701B60184
:103A10000E94862FF22E822F90E039E23F1520F18E
:103A200043E0249F9001112435952795122F10957E
:103A300000E085E5E82EEF1880913E01081718F1A7
:103A40000E94E3199C8181E0992319F0903219F4C6
:103A50008FEF8093370180913701890F8C83CDB729
:103A6000DEB7ECE00C94013025E530E0B901681BCD
:103A7000790B9B01220F331F260F371F37FFD4CF3F
:103A80002F5F3F4FD1CF8E2D01FD8F2D20913C0117
:103A9000622F600F7727771F9B01220F331F260F9E
:103AA000371F285B3C4F412F609145030E945A19F4
:103AB0000F5FC2CF0F931F93CF93DF93EC0110E002
:103AC00000E090913E019017110609F06CF40E94FD
:103AD000E3198C8190E00196817099278C83DF91A6
:103AE000CF911F910F91089520913C01A801420FA1
:103AF000511D9A01220F331F240F351F285B3C4FA5
:103B00004C8160914503809144039695901711066E
:103B100051F04CF0442349F0409146030E945A1959
:103B20000F5F1F4FCECF4423B9F340E0F7CFB0E093
:103B3000A0E0EDE9FDE10C94E12FFC0162804480FE
:103B400081E08483E1E9F3E07490E0E1F4E0E49162
:103B5000C0914603C695C158D0E0CC0FDD1FCD2FD4
:103B6000DD27812C75E0972EAA24AA94B12C552428
:103B70005A94E719EE2EF12C80913E01881638F008
:103B80000E94E319CDB7DEB7E0E10C94FD2FC82CFD
:103B9000D12C82E0861568F09C9CF0019D9CF00D74
:103BA0001124E653FD4F80914403808380914503A7
:103BB0008183411023C09C9CF0019D9CF00D112439
:103BC000E653FD4F1382128220913C01C601820F01
:103BD000911D9C01220F331F280F391F285B3C4F7A
:103BE0009C9CF0019D9CF00D1124E653FD4F4281F9
:103BF000618180810E945A198394BECF9C9C800170
:103C00009D9C100D112406531D4FF80183818823BC
:103C1000F1F081508383859DC0011124648170E09F
:103C20000E945E2FFB01FF27EF56FC4F8491E82F87
:103C3000E719E59DC0011124B7010E945E2F809114
:103C40004603689FB0011124F8017283BDCF0E9422
:103C50006230B5010E94722F8C179D070CF0B4CF13
:103C6000F2E0F61598F40E946230B5010E94722FBE
:103C7000F80180830E946230209145032695622FCF
:103C800070E00E94722F280FF80121839C9CF001A4
:103C90009D9CF00D1124E653FD4F12828091460346
:103CA000893C58F088EC9C9CF0019D9CF00D1124FF
:103CB000E653FD4F8483838387CF8431A0F784E16B
:103CC000F2CF10920F03089525E0E3E4F3E0DC0166
:103CD00001900D922A95E1F720910D0330910E038A
:103CE00040910F03FC012583368347830895EDE05F
:103CF000F3E011828281846082830895E3E4F3E03B
:103D000080818E7F80830E94771EEDE0F3E08281C8
:103D1000816082830E94E3190895E3E4F3E08081E7
:103D20008E7F808360817181828193810E947C1962
:103D30000E94771EEDE0F3E08281816082830E9421
:103D4000E319089560914303669570E04BE050E0FD
:103D50008FE391E00E947230892B19F481E0809307
:103D60000E030E94931190930703809306038091A2
:103D70000F03846080930F0308959091430390FF95
:103D800030C0917081112EC0926090934303809156
:103D90000F03816080930F03662351F0609143030A
:103DA0007091440380914503909146030E947C19D1
:103DB00060914303669570E04BE050E08FE391E043
:103DC0000E947230892BA9F00E94771E81E08093B7
:103DD00009034091460360914503809144030E948A
:103DE000851B08958B3210F09465CFCF880F982BE8
:103DF000CCCF0E94A21EEACF682F909143039695E4
:103E000081E0890F8B3208F081E00E94BD1E089589
:103E100081E00E94FC1E0895682F909143039695BF
:103E20008FEF890F09F48AE20E94BD1E089581E098
:103E30000E940C1F089561E00E94BD1E0895E3E4F6
:103E4000F3E080818160808386950E941B1F089526
:103E50008091430380FF03C00E948D1E08950E943D
:103E60001F1F089560E00E94BD1E089580910C03FD
:103E7000811133C00E940F0E811104C00E94960E62
:103E80000E948F190E947719609343037093440333
:103E9000809345039093460380910F038360809342
:103EA0000F036E7F61F40E948F190E94771960934F
:103EB00043037093440380934503909346030E9409
:103EC00068190E94771E8091430380FF03C0869586
:103ED0000E94321F81E080930C0308951F93CF93BB
:103EE000DF93EC01162F8F8180FF0CC0888180FF4B
:103EF00024C0809143038160809343038881869529
:103F00000E94BD1E8F8181FF06C0212F4B816A81D7
:103F100089810E94941A8F8182FF05C08E81882337
:103F200079F00E94A21E8F8183FF03C081E08093FD
:103F30000903DF91CF911F9108950E947E1EE2CF69
:103F40000E94771EF0CFEF92FF920F931F93CF93B3
:103F5000DF9380910E03882309F463C080910D03E1
:103F6000E0914303E695E81BE0930803823009F0F3
:103F70005DC0F0E0E357FC4FE491CE2FD0E007E3C3
:103F80001AE180910903882361F0109209030E94CD
:103F90009311909307038093060310920B031092E2
:103FA0000A030E949311E0910603F09107039C011C
:103FB0002E1B3F0B2F3F3F47A0F52091C902222324
:103FC000B1F01092C9022091C7023091C802821B41
:103FD000930B8F3F9F4758F4205D3A483093C802B7
:103FE0002093C70280910F03886080930F03E090B5
:103FF0000A03F0900B03EC0FFD1FF0930703E0930F
:10400000060386E093E0F801099580910A039091F8
:104010000B03892B31F4E114F10419F081E0809352
:10402000C902CDB7DEB7E6E00C940730863049F41C
:10403000F0E0E657FC4FE491CE2FD0E00BE41AE11C
:10404000A0CF893051F4E695F0E0E957FC4FE491B8
:10405000CE2FD0E009E81BE194CF8F3051F4E695E4
:10406000F0E0EC57FC4FE491CE2FD0E006EC1BE1E2
:1040700088CF853149F4F0E0EF57FC4FE491CE2F23
:10408000D0E003E51CE17DCFC8E2D0E008ED1CE103
:10409000883109F476CF833239F4EFE7F3E0C59144
:1040A000D4910BE51AE16DCFC4EFD1E00AE51DE133
:1040B000843209F466CFC0EDD7E001E519E185321D
:1040C00009F05FCF8E2F63E00E94442FE92FF0E0CC
:1040D000E458FC4FE491CE2FD0E007E91DE151CF29
:1040E000FA01811101C0FB0109950895CF93DF9377
:1040F000C82FD62F0E94A7198C1748F00E94A71925
:104100008D1728F40E94081FDF91CF9108958C2FFE
:104110000E941B1FF9CF1F93CF93DF93EC01FB018C
:104120001281111110C00E94210D8272FE01E05215
:10413000F847E531F10508F05EC0E65FFE4C0C94EF
:10414000A82F0E94281F812FDF91CF911F910895E2
:1041500047E15FE168E07FE10E947020F4CF48E032
:104160005FE167E17FE1F8CF49E35BE16AE27BE190
:10417000F3CF4AE25BE169E37BE1EECF4BE55BE144
:104180006AE47BE1E9CF4AE45BE16BE57BE1E4CF04
:104190004DE75BE16CE67BE1DFCF4CE65BE16DE791
:1041A0007BE1DACF4BED59E163EC79E1D5CF43EC1C
:1041B00059E16BED79E1D0CF81E00E941B1FC3CFA5
:1041C00065E082E00E947620BECF68E086E0FACF0C
:1041D0006EE089E0F7CF64E18FE0F4CF67E185E13D
:1041E000F1CF88E1EACF62E289E1ECCF83E2E5CF6B
:1041F0006AE285E2E7CF11E0A6CF80916C0381707F
:10420000089586E090E00E9495300895682F86E03A
:1042100090E00E94A9300895ECE6F3E0808184707C
:10422000896380830E940621089580916C0386959E
:104230008695869508950E940F0E811104C00E94F4
:10424000960E0E940C210E94012180936C03803401
:1042500020F08770886380936C0390916C03892FA2
:10426000817090FF04C0892F8695869586950E945F
:104270002422089580916C03982F96959695969593
:10428000973040F49F5F990F990F990F8770892B92
:1042900080936C0380916C03816080936C030E9417
:1042A000062180916C038695869586950E9424222E
:1042B000089580916C03982F987F79F088508093AF
:1042C0006C03887F91E009F490E080916C0390FB8F
:1042D00080F980936C030E94062180916C0386957F
:1042E000869586950E942422089580916C0380FD16
:1042F00013C0816080936C03813019F489E080934E
:104300006C0380916C030E94062180916C0386955A
:10431000869586950E942422089580916C0380FFE3
:1043200008C08E7F80936C030E94062180E00E946B
:104330002422089580916C0380FF03C00E948D2188
:1043400008950E947521089590916C03892F869598
:10435000869586958F5F8F7197708830E0F4880F0F
:10436000880F880F892B80936C0380916C03887F62
:1043700091E009F490E080916C0390FB80F98093C8
:104380006C030E94062180916C0386958695869524
:104390000E942422089590936C03E7CF883008F0A0
:1043A00087E090916C039770282F220F220F220F25
:1043B000922B90936C03987F21E009F420E0909178
:1043C0006C0320FB90F990936C030E9424220895C3
:1043D0000E94CE2180916C030E94062108959C01C9
:1043E000FB018281882349F12230F8E73F07F9F089
:1043F00040F42115E8E73E0769F02130384779F0AD
:104400000895243098E7390779F058F02530384777
:1044100089F0089587E00E94E82180E0089580E017
:10442000FACF0E945921F9CF0E943A21F6CF0E947B
:104430009A21F3CF0E94A421F0CF81E00895259A1C
:104440002D9808952D9808958F929F92AF92BF92C4
:10445000EF92FF920F931F93CF93DF93C82F883073
:10446000C0F5811137C0809180008F7780938000E4
:104470000E942222A0918600B09187002C2F30E06C
:104480000E94B62F27E030E040E050E00E94862FE7
:1044900089019A0180918600909187006CE070E01C
:1044A0000E945E2F60177107D8F0C80169E070E0C4
:1044B0000E945E2F7093890060938800DF91CF91F6
:1044C0001F910F91FF90EF90BF90AF909F908F90B2
:1044D0000895C7E080918000806880938000CACFF3
:1044E0008091860090918700E0908600F090870090
:1044F000E0918600F0918700C6E0D0E0BE010E9406
:104500005E2F060F171F211D311D4801590185E03F
:10451000880C991CAA1CBB1C8A95D1F7C701BE0147
:104520000E945E2F9F0150E040E0260F371F411D83
:10453000511DC501B4010E94862F49015A01E09125
:104540008600F0918700CA01B9010E94342F9B01B7
:10455000AC01DF010E94CC2F9B01AC01C501B4016D
:104560000E94342F2FE096958795779567952A9529
:10457000D1F7009186001091870030E020E0061707
:1045800017072807390708F095CF609186007091CA
:10459000870090CF08950E941F2282E880938000B8
:1045A00089E1809381008FEF9FEF90938700809344
:1045B00086000E941B210895249A45B14F7E55B173
:1045C0005061EFB7F8949B01220F331F260F371F5E
:1045D000280F391F2817390741F4EFBF8FE594E002
:1045E0000197F1F700C000000895DC016D91CD0145
:1045F00078E055B9000000C067FF45B9660F0000BC
:1046000000C000C000C045B900C07A9591F7E2CF64
:104610000895FC01680F791F8FEF91E3E617F70704
:1046200009F408952191822728E030E087FF06C031
:10463000880F892721503109C9F7F0CF880FFACFA9
:10464000CF93DF93EC01FB018281882309F4D2C070
:104650009E0130572332310508F0B2C00E94240E6B
:1046600090932C0380932B03FE01E150F047E2323C
:10467000F10520F4E15EFE4C0C94A82F80912B03F1
:10468000816080932B0393C080912C03886080937A
:104690002C038DC080912B038260F3CF80912B037C
:1046A0008460EFCF80912B038860EBCF80912C0347
:1046B0008160EDCF80912C038260E9CF80912B0344
:1046C0008061DFCF80912B038062DBCF80912B0351
:1046D0008064D7CF0E94A90880912B038068D1CF36
:1046E00080912B038C60CDCF80912C038360CFCF42
:1046F00080912B038E7FC5CF80912C03877FC7CFFE
:1047000080912B038D7FBDCF80912B038B7FB9CF01
:1047100080912B03877FB5CF80912C038E7FB7CFFD
:1047200080912C038D7FB3CF80912B038F7EA9CFF7
:1047300080912B038F7DA5CF80912B038F7BA1CF01
:104740000E94A90880912B038F779BCF80912B0328
:10475000837F97CF80912C038C7F99CF80912B03FF
:1047600082FB992790F921E0922790FB82F990FB38
:1047700083F987CF80912C03982F909591708E7F2D
:10478000892B90FB81F983CF90912B03892F8F7B0D
:1047900096FF806476CF0E94A90890912B03892F01
:1047A00097FB87F980586DCF81E00E94990E809128
:1047B0002B0390912C030E94290E0E94A90880E0EF
:1047C000DF91CF91089580E0F0CF90912B03892F56
:1047D0008F7E94FF806155CF90912B03892F8E7F20
:1047E00090FF81604ECF90912C03892F877F93FF9C
:1047F00088604DCF81E0E4CFCF93DF93EB0186312A
:104800009C4711F50E94210D9A81992399F08A7A8B
:1048100091E009F490E090931003811109C089E2BE
:104820000E94F90C0E94620D80E0DF91CF91089503
:1048300085E3F6CF80911003811104C089E20E94C4
:10484000010DF0CF85E3FBCF81E0EFCF0F931F93F6
:10485000CF93DF93C42FD22FFC0182818823C9F02C
:10486000409313030E940D28909312038093110329
:1048700080E28C0F883040F4C77081E001C0880F5F
:10488000CA95EAF70E944C06DF91CF911F910F91D4
:10489000089510911303141332C080911103909165
:1048A00012030E942528883C910548F5C0E2CD0FEF
:1048B0001D17B9F080E2810F883040F4177081E055
:1048C00001C0880F1A95EAF70E945306C83048F4D1
:1048D00081E09D2F977001C0880F9A95EAF70E949A
:1048E0004C06802F0E944306C83070F6D77081E0D6
:1048F00001C0880FDA95EAF70E945306C5CF80E21F
:104900008C0F883008F6C77081E001C0880FCA9507
:10491000EAF7F2CF0F93DB0188519C47873091056E
:10492000A0F5FC01EF5BFE4C0C94A82F06E221EEF3
:1049300041EE6AE17CE7CD010E94262480E00F91E0
:10494000089507E225EE45EE6BE17CE7F4CF06E241
:1049500021EE40EE68E17CE7EECF07E225EE44EE83
:1049600069E17CE7E8CF06E221EE42EE6CE17CE70C
:10497000E2CF07E225EE46EE6DE17CE7DCCF08E210
:1049800021E045EE6EE17CE7D6CF12968C9188232C
:1049900019F010921303D3CF81E0D1CF8EE1489B61
:1049A00002C08150E1F7489BFECF0895589880E2FD
:1049B0008A95F1F7589A0895FC013BE03A95F1F792
:1049C00098E020E080E031E040E14A95F1F7880F7F
:1049D000489B02C08160232742E04A95F1F700001E
:1049E00040E14A95F1F7915079F790E19A95F1F706
:1049F00099B132E03A95F1F7000040E14A95F1F7BC
:104A0000917092272081920F90830895A1E0B0E0E9
:104A1000ECE0F5E20C94EB2F19828C017C01E60EA0
:104A2000F11C0E151F0541F481E09981911180E080
:104A30002196E6E00C9407300E94CE24CE01019628
:104A40000E94DC24F80181938F01EBCF509A589A91
:104A500008955098589AE89AE9E6F0E080818C7FB2
:104A6000808308956150770B91E001C0990F6A959A
:104A7000EAF720E031E0911108C0222391F0589A22
:104A800080E28A95F1F758980895492F482339F024
:104A9000589A232740E24A95F1F79695ECCF58981B
:104AA000F9CF5898EDCFFF920F931F93CF93DF93D9
:104AB000EC018C01060F111DC017D10729F4CDB7E9
:104AC000DEB7E5E00C940830F9900E94D62468E047
:104AD0008F2D0E943225F0CF1F920F920FB60F92AA
:104AE00011240F931F932F933F934F935F936F93D3
:104AF0007F938F939F93AF93BF93EF93FF93CF9346
:104B0000DF930F92CDB7DEB719820E94CE24CE017B
:104B100001960E94DC24082F069506950695282FFD
:104B200022952570902F9570290F922F93702695BE
:104B30002695920F982797708981982B09F05CC071
:104B4000063008F059C080E18A95F1F7589A509ADA
:104B500082E08A95F1F700C0589888E0089F8001AC
:104B60001124D801A95FBE4F1696ED91FC911797BD
:104B70003097A9F06091C8017091C90114962D91E8
:104B80003C911597260F371F11968D919C91129786
:104B9000680F791F13964C9113978C910995F80122
:104BA000E95FFE4F6381662351F02091C801309187
:104BB000C90184819581820F931F0E9453250E9411
:104BC000D62480E18A95F1F758985098589A80E158
:104BD0008A95F1F7F801E95FFE4F6081662351F095
:104BE0002091C8013091C90181819281820F931F68
:104BF0000E9406250E94CE240F90DF91CF91FF9155
:104C0000EF91BF91AF919F918F917F916F915F9144
:104C10004F913F912F911F910F910F900FBE0F90C9
:104C20001F9018950F931F93CF93DF93EC01069776
:104C30000CF04CC0F894509A589885E08A95F1F79A
:104C400000009C2F969595708C2F8570980F892F5A
:104C500083709695969523E0CC0FDD1F2A95E1F79A
:104C6000980F8E01092B0E94D62400C068E0802F87
:104C70000E94322580E18A95F1F75098589A489B16
:104C80001EC087E090E048991CC0FE01E95FFE4F1E
:104C900063816623F9F02091C8013091C9018481B4
:104CA0009581820F931F0E940625811113C0509A8F
:104CB000589A7894DF91CF911F910F91089500C079
:104CC000DECF019729F4509A589A789480E0F2CF79
:104CD00000C0D9CF0E94CE2480E28A95F1F758987F
:104CE000509A80E18A95F1F7C95FDE4F68816623AB
:104CF00051F02091C8013091C90189819A81820FB8
:104D0000931F0E9453250E94D624789481E0D2CF2D
:104D10009093F7018093F601089590931A0380937E
:104D2000190308950E946F13811103C08091140329
:104D30000895E0911903F0911A03309729F001903A
:104D4000F081E02D0995089580E00895E091190320
:104D5000F0911A03309721F00280F381E02D09953C
:104D60000895E0911903F0911A03309739F022E089
:104D7000DC012C930480F581E02D09950895A3E0D2
:104D8000B0E0E5ECF6E20C94EF2F209117033091A0
:104D9000180328173907A1F090931803809317037D
:104DA000E0911903F0911A03309751F023E0298321
:104DB0009B838A830680F781E02DCE0101960995B9
:104DC0002396E2E00C940B30A3E0B0E0EAEEF6E2CA
:104DD0000C94EF2F209115033091160328173907F3
:104DE000A1F09093160380931503E0911903F091BD
:104DF0001A03309751F024E029839B838A8306802D
:104E0000F781E02DCE01019609952396E2E00C94FE
:104E10000B309C012E5F3F4FAC01485F5F4F80E03D
:104E20002417350709F40895F90191919F019923F9
:104E3000B9F38F5FF5CF662349F0FC0132960896EF
:104E40002191261729F0E817F907D1F780E0089596
:104E500081E008959C01FC0132969FEF80E0419132
:104E6000461751F09F3F19F4411101C0982F8F5FF1
:104E70008630A9F79F3F09F40895290F311D97FD4A
:104E80003A95F90162830895FC01329608962191C2
:104E9000261303C0DF0111971C92E817F907B9F731
:104EA00008950E942A2708950E9444270895029693
:104EB00026E0FC0111922A95E9F7089546E050E0BA
:104EC0000E947F3021E0892B09F420E0822F089591
:104ED00008950E9468270895811106C081E080939B
:104EE0001B030E946927089582E0F9CF83E0809335
:104EF0001B030E94692708950E946C27089581E092
:104F000080931B030E94692708950E947F270895BC
:104F1000089508950E9489270895089508950E948C
:104F200088270895CF930E948D270E94EE120E9439
:104F30008E27C0E08C2F0E94C711811105C0CF5F62
:104F4000CA30C1F7CF91089581E0FCCF85B7806862
:104F500085BF85B7806885BF08951F921FB61F92D1
:104F600011248F939F93AF93BF9380911C03811162
:104F700013C080916D0390916E03A0916F03B09167
:104F800070034196A11DB11D80936D0390936E0334
:104F9000A0936F03B0937003BF91AF919F918F91D6
:104FA0001F901FBE1F90189580917503843031F1BA
:104FB0000E94A90410921C0388E190E020E40FB63F
:104FC000F894A895809360000FBE2093600083B78B
:104FD000817F846083BF83B7816083BF7894889525
:104FE00083B78E7F83BF0FB6F894A8958091600039
:104FF000886180936000109260000FBE08950E9447
:10500000A9080E94B104089582E084BD93E095BD93
:105010009AEF97BD80936E0008952FB7F894809112
:105020006D0390916E03A0916F03B09170032FBF39
:1050300008952FB7F89460916D0370916E0380917D
:105040006F03909170032FBF08959C014FB7F894A0
:1050500080916D0390916E03A0916F03B0917003E6
:105060004FBF821B930B0895CF92DF92EF92FF9276
:105070002FB7F894C0906D03D0906E03E0906F034B
:10508000F09070032FBFA7019601261B370B480B2A
:10509000590BCA01B901FF90EF90DF90CF900895AE
:1050A00078941F921FB61F9211248F939F93AF93F2
:1050B000BF9380916D0390916E03A0916F03B091A7
:1050C00070030196A11DB11D80936D0390936E0333
:1050D000A0936F03B0937003BF91AF919F918F9195
:1050E0001F901FBE1F90189581E08093E00080E222
:1050F0008093D8001092C9008FE19EE40197F1F7E8
:1051000000C0000087E090EBDC0180937E03909369
:105110007F03A0938003B093810388E19CE00FB6E6
:10512000F894A895809360000FBE90936000FFCF25
:1051300088E19CE00FB6F894A895809360000FBEBC
:1051400090936000FFCF8091250308959B01BA01E1
:10515000909175039430E9F48F708093E9009FEF8C
:105160008091E800915085FD06C085ED8A95F1F7A4
:1051700000009111F5CF8091E80085FF0AC050E052
:1051800040E0C9010E949B2A8091E8008E778093BD
:10519000E800089543E050E0BC0182E00E94A628A8
:1051A000089546E050E0BC0182E00E94A6280895E0
:1051B000CF93DF93EC0148E050E0BC0181E00E9416
:1051C000A62888E0FE01ADE1B3E001900D928A953A
:1051D000E1F7DF91CF91089580917403811109C0A7
:1051E0000E942B2C0E94882C8091E2008460809386
:1051F000E20008951092740308950E947F27089595
:105200006091710381E0611101C080E00E94762706
:1052100008959091750381E0943009F080E06091E9
:1052200071030E947C27089542E061EC81E00E94B6
:10523000A72B42E261EC82E00E94A72B90917503BC
:1052400081E0943009F080E0609171030E946C2746
:10525000089580917703833009F461C030F4813080
:10526000D1F1823009F49EC008958A3009F48AC0D1
:105270008B3009F46FC0893009F050C080917603FB
:10528000813209F04BC080917A0390917B030297A1
:1052900008F044C08091E800877F8093E800809107
:1052A000E80082FF37C09091F3008091F2000297EE
:1052B00031F48091F100813011F0863021F4809139
:1052C000F100809325038091E8008B778093E800BC
:1052D0000E94DB2B23C080917603813AF9F4809100
:1052E000E800877F8093E80080917A0390917B03A8
:1052F000892B61F468E08DE193E070E00E94EA2A76
:105300008091E8008B778093E800089560E090E05A
:1053100080E0F3CF809175038111C1CF0895809112
:105320007603813AD9F780917A0390917B03892B98
:10533000A9F78091E800877F8093E8008091E800DA
:1053400080FFFCCF809152018093F1008091E800B2
:105350008E77BCCF80917603813201F780917A03FA
:1053600090917B03892BD1F68091E800877F809311
:10537000E8000E94DB2B80917803809352010E9409
:10538000A908089580917603813241F68091E80062
:10539000877F8093E8000E94DB2B809179038093C4
:1053A0002603089580917603813A09F0B7CF809162
:1053B000E800877F8093E8008091E80080FFFCCFC1
:1053C00080912603C1CF84B7877F84BF0FB6F8943E
:1053D000A8958091600088618093600010926000C1
:1053E0000FBE80E890E00FB6F89480936100909330
:1053F00061000FBE0E94852708950E942B2C0E94F9
:10540000882CE2EEF0E080818460808378940E94B2
:10541000072F08958AE491E00E948D2608958091D7
:105420007503853031F480917503853019F00E9441
:10543000FF2708950E94D42780917303882399F34E
:105440000E949227882379F30E94852A0E94A90846
:10545000EACF08950E942D2A0895292F332723305B
:10546000310519F168F42130310509F444C02230C6
:10547000310509F445C090E080E030E020E025C02F
:105480002132310549F122323105A9F780E490E05B
:1054900022E936E061157105C1F08BE790E027E164
:1054A00036E06130710589F0E6CF992781309105AA
:1054B00081F0009729F00297F1F6E6E9F5E002C0E5
:1054C000E6ECF5E0849190E09F01FA0131832083BE
:1054D0000895E6EBF5E0F6CF89E090E02CED35E0BD
:1054E0006115710591F389E090E025EF35E06130B9
:1054F000710559F3C0CF82E190E025E036E0E5CFB9
:105500008BE390E02AEC35E0E0CF80E189BD82E1D9
:1055100089BD09B400FEFDCF8091D8008F7D8093B6
:10552000D8008091E00082608093E0008091E000EC
:1055300081FDFCCF0895AF92BF92CF92DF92FF9290
:105540000F931F93CF93DF936C01EB018A010E94AD
:10555000FA2BF82E811123C00115110539F0F8013D
:1055600080819181C81BD90BC80ED91EB12CA12CEA
:105570002097A9F08091E80085FD22C08091E80085
:105580008E778093E80001151105A1F0F801808164
:105590009181A80EB91EB182A08285E0F82E8F2DD0
:1055A000DF91CF911F910F91FF90DF90CF90BF902F
:1055B000AF9008950E94FA2B8823D1F2F82EEFCFF6
:1055C000F60181916F018093F1002197FFEFAF1AEF
:1055D000BF0ACECFFC0180917C0390917D0386179A
:1055E0009707A0F06115710529F49091E8009E7766
:1055F0009093E80090E06115710551F4911108C095
:105600008091E80082FF34C080E00895BC01F2CFB1
:10561000809175038823C1F18530C1F18091E80044
:1056200083FD30C08091E80082FDEACF8091E800E0
:1056300080FFE1CF8091F3002091F200382F6115B7
:10564000710519F02830310558F091E02830310506
:1056500009F090E02091E8002E772093E800CBCF6E
:1056600081918093F100615071092F5F3F4FE7CF27
:1056700080917503882341F0853041F08091E800E6
:1056800083FFBECF81E0089582E0089583E008950E
:10569000FC0180917C0390917D0386179707A0F011
:1056A0006115710529F48091E8008E778093E800F8
:1056B00090E06115710551F4911108C08091E800E6
:1056C00082FF35C080E00895BC01F2CF8091750360
:1056D0008823C9F18530C9F18091E80083FD31C08C
:1056E0008091E80082FDEACF8091E80080FFE1CF61
:1056F0008091F3002091F200382F6115710519F0A7
:105700002830310558F091E02830310509F090E05B
:105710008091E8008E778093E800CBCF84918093CE
:10572000F1003196615071092F5F3F4FE6CF8091B4
:105730007503882341F0853041F08091E80083FFB4
:10574000BDCF81E0089582E0089583E00895982F09
:10575000973028F08F708093E90081E0089590934E
:10576000E900242F762F50E0981731F07091EC006B
:105770002091ED005091F00021FD02C09F5FE8CF25
:105780003091EB003E7F3093EB003091ED003D7F98
:105790003093ED003091EB0031603093EB0070936B
:1057A000EC002093ED005093F0002091EE0027FDD7
:1057B000E5CF80E008958091760387FF13C0809144
:1057C000E80082FF06C08091E8008B778093E800B4
:1057D00004C0809175038111F2CF08958091750303
:1057E0008823D9F38091E80080FFF8CF8091E8000A
:1057F0008E77ECCF2091E4003091E50095E6A90189
:105800002091EC00822F817020FF06C08091E8007B
:1058100080FF06C080E008952091E80022FD1AC0B4
:1058200080917503882389F0853089F08091EB00A1
:1058300085FD0FC02091E4003091E5004217530729
:10584000F9F29150E1F684E0089582E0089583E052
:10585000089581E008950E949A2C0E94A22CE0EE07
:10586000F0E0808181608083E8EDF0E080818F77D7
:10587000808319BCA7EDB0E08C918E7F8C938081E2
:105880008F7E80831092740308950F931F93CF939C
:10589000DF930E949A2C0E94A22CC8EDD0E0888150
:1058A0008F77888388818068888388818F7D8883CB
:1058B00019BC109275031092710310927303109229
:1058C000720300EE10E0F80180818B7F8083888175
:1058D0008160888342E060E080E00E94A72BE1EED7
:1058E000F0E080818E7F8083E2EEF0E08081816055
:1058F0008083808188608083F80180818E7F8083AF
:10590000888180618883DF91CF911F910F910895E5
:10591000E8EDF0E080818F7E8083E7EDF0E080812C
:105920008160808384E082BF81E0809374030E9461
:10593000452C0895E8EDF0E080818E7F8083109201
:10594000E20008951092DA001092E10008951F928B
:105950000F920FB60F9211242F933F934F935F93A3
:105960006F937F938F939F93AF93BF93EF93FF9327
:105970008091E10082FF0BC08091E20082FF07C0AE
:105980008091E1008B7F8093E1000E94062F80913F
:10599000DA0080FF19C08091D80080FF15C0809187
:1059A000DA008E7F8093DA008091D90080FF96C064
:1059B00080E189BD82E189BD09B400FEFDCF81E0AF
:1059C000809375030E94EC288091E10080FF19C04C
:1059D0008091E20080FF15C08091E2008E7F80936D
:1059E000E2008091E20080618093E2008091D80023
:1059F00080628093D80019BC85E0809375030E9473
:105A000000298091E10084FF2BC08091E20084FF97
:105A100027C080E189BD82E189BD89B5982F917049
:105A200080FFFBCF8091D8008F7D8093D80080913C
:105A3000E1008F7E8093E1008091E2008F7E809371
:105A4000E2008091E20081608093E2008091710326
:105A5000882309F449C084E0809375030E940929D2
:105A60008091E10083FF29C08091E20083FF25C07F
:105A70008091E100877F8093E10082E0809375034D
:105A8000109271038091E1008E7F8093E1008091FC
:105A9000E2008E7F8093E2008091E200806180933B
:105AA000E20042E060E080E00E94A72B8091F000DD
:105AB00088608093F0000E94FD28FF91EF91BF91D4
:105AC000AF919F918F917F916F915F914F913F9196
:105AD0002F910F900FBE0F901F90189519BC109228
