:100000000C9461060C9499060C9499060C940B2B95
:100010000C9499060C9499060C9499060C949906E4
:100020000C9499060C9499060C941D1A0C94D919E9
:100030000C9451240C9499060C9499060C949906EE
:100040000C9499060C9499060C9499060C949906B4
:100050000C9499060C94F51A0C9499060C94990634
:100060000C9499060C9499060C9499060C94990694
:100070000C9499060C9499060C9499060C94990684
:100080000C9499060C9499060C9499060C94990674
:100090000C9499060C9499060C9499060C94990664
:1000A0000C9499060C9499060C94990635001E0040
:1000B0001F002000210022002B0014001A0008005D
:1000C00015001700E00004001600070009000A00F0
:1000D000E1001D001B000600190005000000E00003
:1000E000E30022522C004A002A00270026002500A7
:1000F000240023002D00130012000C0018001C0027
:10010000340033000F000E000D000B0028003800F3
:10011000370036001000110000002900E2002152D3
:100120002C004D0029003A003B003C003D003E0001
:100130003A00440045004600470048000000000027
:100140000000000000002600010001000100010085
:1001500001000100000001002552010001002F00F4
:100160002A0043004200410040003F004C004E0086
:100170004B004D004A004900310030002F002E0096
:100180002D002700AE00A900AA00AB00310000003E
:1001900000000100010001000100300035021E02D4
:1001A0001F022002210222020000000000000000C5
:1001B000000000000578000000000000A80000001A
:1001C00028782778000000000000000000000100EF
:1001D0000100010001000100A600270226022502FD
:1001E000240223024C0030002F0048004700460044
:1001F000320000004D0052004A000000AD00AE0089
:100200004F005100500000000000AB00AC00255230
:1002100001000100000000000000000000000000DC
:1002200000000000000000000000000000000000CE
:1002300000000000000000000000000000000000BE
:1002400000000000000001000100010001000000AA
:10025000000000000000000000000000000000009E
:10026000000000000000000000000000000000008E
:10027000000000000000000000000000000000007E
:100280000000010001000100010000000100010068
:100290000100010001000100010001000100010056
:1002A0000100010001000100010001000100010046
:1002B0000100010001000100010001000000010037
:1002C0000100010001000100010001000100010026
:1002D0000100010001000100010001000100010016
:1002E0000100010001000100010001000100010006
:1002F00001000100010001000000010001000100F7
:10030000010001003A003B003C003D003E003F0080
:100310000678007C027C21780000000002780578D5
:100320000000000000000000207800000000000035
:1003300000000000000000000100000000000000BC
:100340004500440043004200410040004C000000D2
:100350000000000000000000217829782778257827
:100360002378000022782A782878267824780000DC
:1003700000000000000001000000000000DA02811F
:10038000FFD9F1DB20A4A62EAF00A0C000A1C800B9
:10039000AED580A81FD300408D142000556E6B6E23
:1003A0006F776E0041646A7573740052616973659A
:1003B000004C6F7765720044656661756C74004C23
:1003C000617965723A20003A002C206B00780000B9
:1003D00000000000FEFFFFFFFFFFFFFFFFFFFFFF2A
:1003E000FFFFFFFFFFFFFFFFFFFFFFFFFFFFFFFF1D
:1003F000FFFFFFFFFFFFFFFFFFFFFF0F0F0F0F0FBD
:10040000FFFFFFFFFFFFFFFFFFFFFFFFFFFFFFFFFC
:10041000FE000000000000000000000000000000DE
:1004200000000000000000000000000000000000CC
:1004300000000000000000000000000000000000BC
:1004400000000000000000000000000000000000AC
:1004500000000000FFFFFFFF8383838383FFFF8390
:10046000838383FFFF8383838383FFFF838383836C
:10047000FFFF8383838383FFFFFFFF828282828269
:10048000FFFF83838383FFFF8383838383FFFFFFD8
:10049000FF00000000000000000000F8FCFCFC9CD5
:1004A0009CFCFCF8F870000000000030787C3C9C5C
:1004B000FCFCF8F00000000000C0F0F8F83C3C9CA8
:1004C000BCFCB8B8A0000000000000000000000064
:1004D00000000000FFFFFFFF4141414141FFFFFFDE
:1004E000FFFFFFFFFF4141414141FFFFFFFFFFFFD2
:1004F000FFFF4141414141FFFFFFFF414141414178
:10050000FFFF7F7F7F7FFFFF4141414141FFFFFFB1
:10051000FF000000000000000000003F3F3F3F03DD
:10052000070F3F3F3E382000000000383C3E3F3F71
:100530003F3B39380000000000070F1F3F3C383BAD
:100540003B3F1F1F0F0000000000000000000000E4
:10055000000000007FFFFFFFF0F0F0F0F0FFFFFF72
:10056000FFFFFFFFFFF0F0F0F0F0FFFFFFFFFFFFE6
:10057000FFFFF0F0F0F0F0FFFFFFFFF0F0F0F0F021
:10058000FFFFF0F0F0F0FFFFF0F0F0F0F0FFFFFF02
:100590007F000000000000000000000000000000DC
:1005A000000000000000000000000000000000004B
:1005B000000000000000000000000000000000003B
:1005C000000000000000000000000000000000002B
:1005D0000101010101010101010202020202020204
:1005E00002020303030303030303040404040404D7
:1005F000040505050505060606060607070707079D
:1006000008080808090909090A0A0A0B0B0B0C0C4F
:100610000C0D0D0D0E0E0E0F0F0F101011111112EB
:100620001213131414151516161717181819191A6A
:100630001A1B1B1C1D1D1E1E1F20202122222324CD
:1006400024252626272829292A2B2C2D2D2E2F300C
:10065000313232333435363738393A3B3C3D3E3F20
:10066000404142434445464748494A4C4D4E4F500D
:10067000515354555658595A5B5D5E5F61626465CB
:100680006668696B6C6D6F7072737577787A7B7D55
:100690007E8082838587888A8C8E8F9193959698A9
:1006A0009A9C9EA0A2A3A5A7A9ABADAFB1B3B5B7C5
:1006B000BABCBEC0C2C4C6C9CBCDCFD1D4D6D8DB9C
:1006C000DDDFE2E4E7E9EBEEF0F3F5F8FAFDFF0039
:1006D000AF00AE05010906A101050719E029E715DC
:1006E00000250195087501810295017508810105B4
:1006F00007190029FF150026FF00950675088100DF
:1007000005081901290595057501910295017503E3
:100710009101C009022200010100A0FA09040000B1
:100720000103010100092111010001224000070518
:1007300081030800011201000200000008D8042E05
:10074000EB00010102000116034C0069006C007906
:100750000035003800200052003200470000001C25
:10076000034D0065006300680062006F0061007265
:100770000064007300200055004B000000040309D2
:10078000040000000000003E5B4F5B3E003E6B4FEC
:100790006B3E001C3E7C3E1C00183C7E3C18001C3E
:1007A000577D571C001C5E7F5E1C0000183C180023
:1007B00000FFE7C3E7FF00001824180000FFE7DB95
:1007C000E7FF0030483A060E002629792926004026
:1007D0007F05050700407F05253F005A3CE73C5A4E
:1007E000007F3E1C1C0800081C1C3E7F0014227F5A
:1007F0002214005F5F005F5F0006097F017F000039
:100800006689956A0060606060600094A2FFA294AF
:100810000008047E04080010207E20100008082A2A
:100820001C0800081C2A0808001E10101010000CDC
:100830001E0C1E0C0030383E383000060E3E0E06F0
:100840000000000000000000005F00000000070042
:10085000070000147F147F1400242A7F2A1200232B
:100860001308646200364956205000000807030050
:1008700000001C224100000041221C00002A1C7FB5
:100880001C2A0008083E080800008070300000089C
:10089000080808080000006060000020100804023A
:1008A000003E5149453E0000427F400000724949E8
:1008B0004946002141494D33001814127F1000278A
:1008C00045454539003C4A49493100412111090754
:1008D00000364949493600464949291E000000149E
:1008E0000000000040340000000008142241001401
:1008F00014141414000041221408000201590906BE
:10090000003E415D594E007C1211127C007F494926
:100910004936003E41414122007F4141413E007F36
:1009200049494941007F09090901003E414151738C
:10093000007F0808087F0000417F410000204041FF
:100940003F01007F08142241007F40404040007F6B
:10095000021C027F007F0408107F003E4141413E9F
:10096000007F09090906003E4151215E007F0919F7
:1009700029460026494949320003017F0103003F0F
:100980004040403F001F2040201F003F4038403F74
:1009900000631408146300030478040300615949D8
:1009A0004D4300007F414141000204081020000037
:1009B0004141417F000402010204004040404040A8
:1009C000000003070800002054547840007F2844AA
:1009D000443800384444442800384444287F0038D0
:1009E000545454180000087E0902001824241C786E
:1009F000007F080404780000447D4000002040404F
:100A00003D00007F102844000000417F4000007C32
:100A100004780478007C080404780038444444389E
:100A2000007C1824241800182424187C007C080456
:100A300004080048545454240004043F4424003C57
:100A40004040207C001C2040201C003C4030403CAA
:100A5000004428102844004C9090907C004464543A
:100A60004C44000008364100000000770000000000
:100A700041360800000201020402003C2623263C05
:100A800000000000000080808080000000000080E6
:100A9000E070180C1830E080000010F890103078EA
:100AA0003010B8FC3810000000000000F8FCF8001E
:100AB0000000000000000000000000001C9C1C0062
:100AC000000000F8FCF80000000000001CFCF8C06A
:100AD00000000000000080E0F87C1C000000F0FC3A
:100AE000FCFC1C1C1C1C1C1C1C1C0000000000002E
:100AF000C0F0F8381C1C1C1C1C1C3CF8F0E000E08A
:100B0000F0F0F0E0ECEEF7F37020007C7C7C7E00EF
:100B10007E7E7E7F7F7F000080C0E07E5B4F5BFE3D
:100B2000C00000C000DCD7DEDEDED7DC00C0000085
:100B300000000000000000000000000000000000B5
:100B40000000000000000FBCE08181818383828768
:100B50000C183060C000001FFE90B9FFBB91983C9C
:100B60001811133F1100000000000000FFFFFF00FC
:100B7000000000000000000000000000FFFFFF0078
:100B8000000000FFFFFF0000000000000000030F56
:100B90007FF8E080F0FC3F0F0100000000003F3FC5
:100BA0003F1C1C1C1C1C3C78F8F0E080000000007E
:100BB000C3E7FF7E3C3878787070F8FFDF87000F5E
:100BC0001F3F7F7F7F7F7F3F1E0C001F1F1F3F0047
:100BD0003F3F3F7F7F7F00307B7F78302020307821
:100BE0007F3B0003000F7F0F0F0F7F0F00030000FC
:100BF00000000000000000000000000000000000F5
:100C000000183C24666341C181808080808080819F
:100C1000C14162386C4CC68181808080808081C1F6
:100C20004362361C1800000000000000FFFFFFC0F8
:100C3000C0C0C0C0C0C0C0C0800000007FFF7F0037
:100C40000000007FFFFFC080000000E0E0C0C0C0E7
:100C5000E0F97F1F0700000000000000000070F0B6
:100C6000E0E0C0C0C0C0E0F0F87F3F0F0000000F20
:100C70003F7FF9E0E0C0C0C0C0C0E0F97F3F1F0087
:100C80000000000000000000000000000000000064
:100C90000000000000000000000000000000000054
:100CA0000000000000000000000000000000000044
:100CB0000000000000000000000000000000000034
:100CC000000011241FBECFEFDAE0DEBFCDBF04B6B7
:100CD00003FE18C08091340790913507A091360724
:100CE000B09137078730904BA740B04B59F4109222
:100CF0003407109235071092360710923707E0E05C
:100D0000F8E3099512E0A0E0B1E0EEE2FBE502C0F5
:100D100005900D92AA3BB107D9F727E0AAEBB2E004
:100D200001C01D92A433B207E1F70E9478240C940D
:100D3000362D0C9400008F929F92AF92BF92CF926B
:100D4000DF92EF92FF9290914201981305C090912B
:100D50002805903209F44BC08093420190E29093B1
:100D60002805C82ED12CF12CE12C10922705C701A3
:100D7000B6012AE030E040E050E00E947E2C605D49
:100D8000603331F0C114D104E104F10409F460E2EC
:100D90006093260560E28AE0C816D104E104F104FC
:100DA00090F08AE0882E912CA12CB12CC701B601BD
:100DB000A50194010E947E2CCA01B901A5019401EC
:100DC0000E947E2C605D6093250520E284E6C816B3
:100DD000D104E104F10448F0C701B60124E630E093
:100DE00040E050E00E947E2C205D2093240584E2A8
:100DF00095E0FF90EF90DF90CF90BF90AF909F90E5
:100E00008F90089590911E05937061F081110BC031
:100E1000946090931E051092410180911D058160A0
:100E200080931D0508958B3010F09862F2CF880FE3
:100E3000880F982BEECFFC01AC014B5F5F4F8FEF1B
:100E400091E32191822728E030E087FF09C0880FD5
:100E5000892721503109C9F7E417F50791F708955B
:100E6000880FF7CF982F9093E900891779F0509168
:100E7000EC002091ED004091F00021FD0AC09F5F41
:100E8000973089F78093E90081E00895562F40E07C
:100E900022E03091EB003E7F3093EB003091ED008B
:100EA0003D7F3093ED003091EB0031603093EB00EB
:100EB0005093EC002093ED004093F0002091EE0061
:100EC00027FDDDCF80E0089590911E05937071F0AD
:100ED00080931F0560932005493708F048E7409349
:100EE000210580911D05816080931D050895E8ED21
:100EF000F0E080818E7F80831092E2001092DA0011
:100F00001092E100A0EEB0E08C9181608C93808122
:100F10008F77808319BCA7EDB0E08C918E7F8C9386
:100F200080818F7E80831092D6040895B0E0A0E087
:100F3000ECE9F7E00C94452CC8EDD0E088818F7E79
:100F40008883E7EDF0E080818160808384E082BF68
:100F500081E08093D60488818E7F888302EE10E042
:100F6000F80110821092DA0081EEC82ED12CF60121
:100F7000108288818F7788838881806888838881C0
:100F80008F7D888319BC1092EC041092E3041092B8
:100F9000E2041092E10490EEE92EF12CF701808139
:100FA0008B7F808388818160888360E080E00E94FD
:100FB0003207F60180818E7F8083F8018081816015
:100FC0008083808188608083F70180818E7F808329
:100FD000888180618883CDB7DEB7E8E00C94612C0E
:100FE0002091E4003091E50095E6A9012091EC0004
:100FF000822F817020FF06C08091E80080FF06C02C
:1010000080E008952091E80022FD1AC08091EC0450
:10101000882389F0853089F08091EB0085FD0FC031
:101020002091E4003091E50042175307F9F2915006
:10103000E1F684E0089582E0089583E0089581E078
:1010400008958091E40487FF13C08091E80082FF37
:1010500006C08091E8008B778093E80004C08091FF
:10106000EC048111F2CF08958091EC048823D9F328
:101070008091E80080FFF8CF8091E8008E77ECCF78
:10108000FC018091EA049091EB0486179707A0F089
:101090006115710529F49091E8009E779093E8001E
:1010A00090E06115710551F4911108C08091E8003C
:1010B00082FF34C080E00895BC01F2CF8091EC043F
:1010C0008823C1F18530C1F18091E80083FD30C0F3
:1010D0008091E80082FDEACF8091E80080FFE1CFB7
:1010E0008091F3002091F200382F6115710519F0FD
:1010F0002830310558F091E02830310509F090E0B2
:101100002091E8002E772093E800CBCF8191809347
:10111000F100615071092F5F3F4FE7CF8091EC04E0
:10112000882341F0853041F08091E80083FFBECFF5
:1011300081E0089582E0089583E008950895089578
:101140008091D80408952FB7F8946091D2047091DB
:10115000D3048091D4049091D5042FBF08959C01AD
:10116000FC0132969FEF80E04191461751F09F3F7E
:1011700019F4411101C0982F8F5F8630A9F79F3F66
:1011800009F40895290F311D97FD3A95F9016283FD
:101190000895FA01811101C0FB0109950895EEE15E
:1011A000F5E0248130E1231B08F420E024838091C2
:1011B0001D05816080931D050895EEE1F5E0248111
:1011C00030E1230F08F42FEF248380911D05816007
:1011D00080931D050895EEE1F5E0438120E1421B77
:1011E00008F440E08181628190E00E9464070895E4
:1011F000EEE1F5E0438120E1420F08F44FEF8181F9
:10120000628190E00E9464070895EEE1F5E062815A
:1012100020E1621B08F460E08181438190E00E943C
:1012200064070895EEE1F5E0628120E1620F08F4C1
:101230006FEF8181438190E00E9464070895EEE1A1
:10124000F5E08181438162818850990B0E94640797
:101250000895EEE1F5E0818190E043816281089696
:101260000E946407089580911E0586958695815099
:1012700009F48AE00E940207089580911E05869570
:1012800086958F5F8B3008F081E00E9402070895F9
:1012900080933C0180911E05837080933B010E94E6
:1012A0007F1283E080934101089522E8241B08F413
:1012B00020E0620F08954095282F429F412D112470
:1012C000842F0895E42FF0E0EE0FFF1FE552FE4F4C
:1012D0009081921B97FD9195292F38E1239F212D15
:1012E0001124620F0895322F50E0FA01EE0FFF1F14
:1012F000E156FE4F95AD905297FD9195440F551FC5
:10130000FA01E552FE4F2081231B330B290F311DBB
:1013100097FD3A95620F08950E940D130895FF926C
:101320000F931F93CF93DF93182F062FF42ED0E047
:10133000C0E02F2D402F612FCE010E948C092196F5
:10134000CA34D105B1F7CDB7DEB7E5E00C94642C13
:101350000F931F93522F10E0F801EE0FFF1FE1567D
:10136000FE4FA5ADA052BB0B9D015203F001539F50
:10137000F00D1124000F111FD801A552BE4F0C9182
:101380000057110B40039001419F300D11242E0F87
:101390003F1F37FF02C0215C3F4F96E035952795F0
:1013A0009A95E1F7620F1F910F910895E82F86FD3E
:1013B000E0952E2F2F7086FD2F5FE695E695E6953A
:1013C000E670F0E0E956FE4F9181929F902D212D1D
:1013D000112492959F702295207F922B2081920F4D
:1013E00087FD919580E8890F089530E020E0869F81
:1013F000212D969F200D311D1124C9010895AF9212
:10140000BF92CF92DF92FF920F931F93CF93DF9300
:10141000362F472FE82FF0E0E153FA4F71110FC03C
:10142000E4918E2F2E2F6E2F722FDF91CF911F916F
:101430000F91FF90DF90CF90BF90AF900895C72F8E
:10144000D0E02491F22E022F10E056E0659FC001FB
:101450001124EFEFF0E0BF010E94272C832F90E0D2
:10146000880F991F35E5369FD001379FB00D1124A5
:101470008A1B9B0B982F990F980F6F01CC1ADD0ACE
:10148000C09ED001C19EB00DD09EB00D11248B2FF7
:10149000499FA0011124452F55276F01C41AD50A71
:1014A000C09EA001C19E500DD09E500D11245F0121
:1014B000A91AB108AC9E6001AD9ED00CBC9ED00CA8
:1014C0001124CD2CDD24EC19FD09E09FE001E19F02
:1014D000D00DF09FD00D1124ED2F62307105A1F0D9
:1014E00050F46115710509F49ECF6130710581F0EA
:1014F000EB2F852F98CF6430710569F080F066304E
:10150000710509F490CFF4CFE22F2B2F8D2F8BCFC5
:10151000E22F252F88CFEB2F822F2D2F84CF2B2F3B
:101520008F2DE52F80CF80E00895F894E82FE29585
:10153000EF70F0E031A1282F2F7081E090E001C022
:10154000880F2A95EAF7982F9095932391A392A15B
:10155000892B82A3789408959091740392FF06C01A
:10156000282F28712830F9F4877F846093FF06C004
:10157000282F28712831F1F4877E8461209175032A
:1015800020FF06C0382F38713830D9F4877F81604A
:1015900021FF06C0282F28712831D1F4877E816170
:1015A00094FD877E0895282F24712430F9F68B7FCF
:1015B0008860DCCF282F2471243101F78B7E88616D
:1015C000DDCF382F3171313019F78E7F8860E0CF51
:1015D000282F2171213121F78E7E8861E1CF823859
:1015E0009105B9F1B0F48133910509F47DC048F457
:1015F0008932910509F46DC08A32910509F47BC0E6
:1016000008958533910509F45FC08933910509F187
:101610000895833E9105D9F138F4803E910529F172
:10162000823E910579F10895863E9105D9F1873E74
:10163000910509F43EC0843E910541F52091750362
:1016400021FF24C08091740384FD19C087EE90E0CF
:10165000089520917403237009F05AC020917503F6
:1016600023FF14C089E290E008952091740320FDC7
:1016700038C03091750330FF09C024FF43C090E0AB
:1016800080E008952091740322FDF7CF0895209102
:10169000740322FD3AC03091750330FD39C024FF38
:1016A000F5CFEDCF2091740323FFF0CF24FDE7CFDA
:1016B000CDCF2091740323FD2EC03091750331FFEF
:1016C000EECF84EE90E008952091740325FFDECFE5
:1016D000C9CF2091740325FD21C02091750323FFFC
:1016E000D5CF89E390E0D2CF2091740326FFCECFEF
:1016F0008AE290E008952091740326FFC7CF81E32A
:1017000090E0089583EE90E0089582EE90E00895D1
:1017100080EE90E0089586EE90E0089585E390E0F5
:101720000895972F7A30B8F46630A8F48630B0F474
:1017300070E026E0929F600D711D1124FB019CE377
:10174000899FE00DF11D1124EE0FFF1FE455FF4F9F
:1017500085919491089580E090E0089581E0FCCF18
:101760001F93CF93DF930E94EF0AEC01C11582E52E
:10177000D80708F03FC0C11590E5D90708F0C2C0EE
:10178000C83ED105C0F4C03ED10580F4C53AD105AC
:1017900048F4C430D10550F4C130D10539F0D0E05F
:1017A000C0E004C0CD3CD105D0F3D065CE01DF91BF
:1017B000CF911F910895C11580E4D80708F053C058
:1017C000C11590E2D90708F0B7C0C11581E0D8076C
:1017D00030F38D2F0E94AC0A182FCE0199270E945A
:1017E000EF0AC12FD0E0DC2FCC27CC27DF71C82B2C
:1017F000D92BDCCFC03892E5D907A8F4C03682E5F2
:10180000D80708F063C0C03492E5D90708F049C092
:10181000C03282E5D80788F1CF71D0E0DC2FCC2729
:10182000C16FD06AC3CFC03C92E5D90780F48C2F3A
:101830008F71C03AD24508F45EC00E94AC0AC82F2E
:10184000D0E0DC2FCC27CC27DF71D062AFCFC03EF9
:1018500082E5D80708F0A3CFDC2FCC27CC27DF7197
:10186000C06FD06AA3CFCE0199270E94EF0ACC2780
:10187000DF70C82BD92BD06A99CF2C2F26952695AF
:1018800090E2299F900111248C2F8370C1E0D0E059
:1018900002C0CC0FDD1F8A95E2F7C22BD32BDD6887
:1018A00085CF2C2F26952695277080E2289F9001C2
:1018B00011248C2F8370C1E0D0E002C0CC0FDD1F5B
:1018C0008A95E2F7C22BD32BDC6870CF2C2F26959C
:1018D0002695277090E2299F900111248C2F837008
:1018E000C1E0D0E002C0CC0FDD1F8A95E2F7C22B29
:1018F000D32BDA685BCFC82FD0E0DC2FCC27C46FA6
:10190000D06A54CF8C2F8F710E94AC0A55E0D695C7
:10191000C7955A95E1F7CF70D0E0DC2FCC27282F60
:1019200030E084FF05C044E0220F331F4A95E1F701
:10193000C22BD32BD0693ACF8D2F8F710E94AC0A66
:10194000182FCE0199270E94EF0AC12FD0E0DC2F7B
:10195000CC27CC27DF71C82BD92B77CF80912803D8
:101960008111109228030895809590912703982360
:1019700090932703089520911C039091EB0256E069
:10198000291302C080E0089530E0529FF001539F78
:10199000F00D1124E451FD4F7181761306C0708162
:1019A000781303C07281741304C02F5F3F4F2770F8
:1019B000E7CF81E0089580911C039091EB0298138A
:1019C00001C008958F5F8770FACFB0E0A0E0EBEE22
:1019D000FCE00C94442C7C0100918B0310918C034F
:1019E0008091290390912A03082B192BCFE0D0E096
:1019F000CC24C394D12CBC2EC6010C2E02C0880F5F
:101A0000991F0A94E2F780239123892B49F42197A7
:101A100090F7B12C8B2DCDB7DEB7E9E00C94602C9C
:101A2000B7018C2F0E94910B0E94B00B019779F3A4
:101A3000F1CFCF93DF93EC010E94E50CBE010E9431
:101A4000910B0E94B00BDF91CF9108959A3078F5F9
:101A5000863068F5E82FF0E086E0989FE00DF11DF4
:101A600011249E2F977083E0F695E7958A95E1F70C
:101A7000EE0FFF1FEE0FFF1FEB53FD4F50E040E056
:101A800080E0219130E0092E02C0369527950A9416
:101A9000E2F721703327042E01C0220F0A94EAF7DF
:101AA000822B4F5F5F4F4430510559F7089580E016
:101AB00008959A3098F5863088F5E82FF0E086E0B2
:101AC000989FE00DF11D11248E2F877041E001C019
:101AD000440F8A95EAF783E0F695E7958A95E1F752
:101AE000EE0FFF1FEE0FFF1FEB53FD4F30E020E026
:101AF00070E05191DF011197CB01022E02C0969543
:101B000087950A94E2F7817081958527842385273C
:101B10008C932F5F3F4F2430310559F708959093F0
:101B20008C0380938B03089521E030E002C0220FE4
:101B3000331F8A95E2F72095309580918B03909121
:101B40008C03822393230E948F0D089590911D038F
:101B50008095892380931D03282F277091F4282FC7
:101B6000082E000C330B9217130659F09091750351
:101B700092FF07C08595859585950E94940D1092DA
:101B80001D03089521E030E002C0220F331F8A9523
:101B9000E2F780918B0390918C03822B932B0E9410
:101BA0008F0D089590932A03809329030895FC01D3
:101BB00083819481892B29F08081918189238F3FB2
:101BC00051F480E00895843FE1F717C0883EA8F003
:101BD000813FB9F712C0808191810E94190D9295C1
:101BE0009F70963099F358F4925F9F70923048F747
:101BF000803F19F040F7883E20F781E008959A5F12
:101C0000F4CFCF93DF93682F81E06A3019F06D3005
:101C100031F480E00E948F0EDF91CF910895809182
:101C200032079091330726E0FC01ACE2B7E0019067
:101C30000D922A95E1F7603E08F458C026E0FC01B9
:101C400011922A95E9F7C0913207D091330746E007
:101C500050E0BE018CE297E00E94CE2C9E012C52F7
:101C60003540892B41F1C90145E0969587954A9504
:101C7000E1F741E050E0BA0102C0660F771F8A9594
:101C8000E2F7CB0160912A0570912B05862B972BEB
:101C9000B9016B5F7F4FE5E076956795EA95E1F7CF
:101CA00002C0440F551F6A95E2F7842B952B909341
:101CB0002B0580932A052A5F3F4F40912905642F09
:101CC00070E0C9010E94272C481B463010F4240FF5
:101CD000311D211572E0370710F030E020E0245D5F
:101CE0003A4F309333072093320796CFF6E06F9F39
:101CF000B00111246F57784F46E050E00E94C52C88
:101D0000A2CFCF93DF93EC01FE018491811103C038
:101D1000DF91CF9108950E94010E2196F5CFCF93C8
:101D2000382FE0913207F0913307EC52F5402091C3
:101D30002905622F70E0CF010E94272C281B822FDB
:101D4000332361F066E00E94722CC82FC15010F45A
:101D5000CF91089580E20E94010EF8CF9F01280FD5
:101D6000311D2115324018F080E0F0E0E0E08E0FE8
:101D70009F2F911D845D9A4F909333078093320774
:101D8000E7CF0E94810E81E00E948F0E089580911E
:101D9000270390912603892B8093BC0290912803FE
:101DA000992391F0892B8093BC0220E08EEB92E086
:101DB000FC013191CF0131112F5FF2E0843C9F078C
:101DC000B9F721110E94AE0C48E050E06EE173E0DB
:101DD0008CEB92E00E94CE2C892BA9F088E0ECEBF2
:101DE000F2E0AEE1B3E001900D928A95E1F7E09167
:101DF000CF04F091D004309731F00280F381E02DD0
:101E00008CEB92E00995089510922703EEEBF2E037
:101E100086E0DF011D928A95E9F7109226030E9461
:101E2000C70E0895AAE2B0E0E8E1FFE00C944A2C66
:101E300084EE94E02091F100FC012193CF01F4E0C5
:101E40008C3E9F07B9F78091E504833009F470C098
:101E5000B8F4813009F447C0823009F4B1C08091F0
:101E6000E80083FF64C28091E4049091E5049A3015
:101E700008F05DC2E92FF0E0E85CF24D0C94BF2C55
:101E80008A3009F48CC08B3009F46FC0893039F77F
:101E90008091E404813219F78091E8049091E9047B
:101EA000892BE9F68091E800877F8093E800809194
:101EB000E80082FF38C09091F3008091F200029711
:101EC00031F48091F100813011F0863021F480915D
:101ED000F1008093D8048091E8008B778093E8002C
:101EE0000E942108BCCF8091E404813A09F0B7CF69
:101EF0008091E800877F8093E8008091E8049091CA
:101F0000E904892B61F468E089ED94E070E00E94B7
:101F100040088091E8008B778093E800A0CF60E0D4
:101F200090E080E0F3CF8091EC048111C0CF97CF97
:101F30008091E404813A09F092CF8091E804909175
:101F4000E904892B09F08BCF8091E800877F80938B
:101F5000E8008091E80080FFFCCF80913D018093F4
:101F6000F1008091E8008E77B9CF8091E40481324E
:101F700009F075CF8091E8049091E904892B09F06C
:101F80006ECF8091E800877F8093E8000E9421084F
:101F90008091E60480933D010E94040F60CF809100
:101FA000E404813209F05BCF8091E800877F809361
:101FB000E8000E9421088091E7048093D7044FCF66
:101FC0008091E404813A09F04ACF8091E800877F4C
:101FD0008093E8008091E80080FFFCCF8091D704D7
:101FE000BECF803899F0823809F0A1C18091E80411
:101FF0008F70873008F09BC18093E9008091EB00DF
:1020000085FB882780F91092E90006C08091E104E1
:102010009091E204911182609091E800977F9093F3
:10202000E8008093F1001092F1008091E8008E7733
:102030007AC1882309F468C1823009F078C180919F
:10204000E60481116BC18091E8048F702FEF280F97
:10205000263008F06CC18093E9002091EB0020FF4E
:102060005DC1933031F48091EB0080628093EB008E
:1020700055C19091EB0090619093EB0021E030E02E
:1020800001C0220F8A95EAF72093EA001092EA0035
:102090008091EB008860EACF811149C11091E6047C
:1020A0001F778091E3008078812B8093E3008091FB
:1020B000E800877F8093E8000E9421088091E80073
:1020C00080FFFCCF8091E30080688093E30082E092
:1020D000111183E08093EC042AC18058823008F00B
:1020E00026C18091E6049091E7048C3D23E092079D
:1020F000A1F583E08A838AE289834FB7F894DE01F1
:10210000139620E03EE051E2E32FF0E050935700B9
:10211000E49120FF03C0E295EF703F5FEF708E2FD8
:1021200090E0EA30C0F0C7968D939D932F5F2431E5
:1021300059F74FBF8091E800877F8093E8006AE2FB
:1021400070E0CE0101960E9440088091E8008B77F4
:102150008093E800ECC0C096E7CF4091E80450912E
:10216000E904292F33272330310509F43FC078F5DE
:102170002130310509F466C082E290E0E3E1F7E046
:102180002230310509F0D3C02091E800277F209349
:10219000E8002091EA043091EB048217930708F4D9
:1021A0009C0140E02115310509F051C041114FC09B
:1021B0008091E80082FDC9CF8091EC04882329F248
:1021C000853019F28091E80083FFF2CFBECF213233
:1021D000310581F12232310509F0A9C0452B09F002
:1021E000A6C080E490E0E3EDF6E0CECF9927813001
:1021F0009105C1F0009759F0029709F098C0E7E403
:10220000F7E0E4918E2F90E0E7E4F7E007C0EDE718
:10221000F7E0E4918E2F90E0EDE7F7E0009709F00A
:10222000B3CF85C0EFE5F7E0E4918E2F90E0EFE5C6
:10223000F7E0F4CF452B09F07AC089E090E0E5E2C1
:10224000F7E0A2CF82E190E0E5E3F7E09DCF809157
:10225000EC04882309F479CF853009F476CF809196
:10226000E80083FD72CF8091E80082FDA1CF8091CC
:10227000E80080FF97CF9091F3008091F200211544
:10228000310519F08830910550F041E0089709F0C8
:1022900040E08091E8008E778093E80083CF4491FE
:1022A0004093F1003196215031090196E8CF8038F2
:1022B000F1F58091E800877F8093E8008091E30446
:1022C0008093F100B2CE811132C01091E604123039
:1022D00070F58091E800877F8093E8001093E30415
:1022E0000E942108112311F084E005C08091E300D1
:1022F00087FDFACF81E08093EC0461EC81E00E94DD
:1023000032078091EC0413C08091E604813079F4A7
:1023100081E0933009F080E08093E2041092E900BC
:102320008091E800877F8093E8000E9421088091D7
:10233000E80083FF0AC08091E800877F8093E8006F
:102340008091EB0080628093EB00AA96E3E00C940E
:10235000662C882321F00E94B40C0E94C70E0895B9
:10236000882339F090912703982B909327030E949C
:10237000C70E0895882391F09CEF980F913A78F456
:10238000EEEBF2E09191891303C0DF0111971C92EB
:1023900092E0E43CF907B1F70E94C70E089590E27D
:1023A000980F9830D8F7877091E001C0990F8A95FF
:1023B000EAF7892F0E94B40CEFCFCF93C82F882360
:1023C000A9F08CEF8C0F813A00F5EEEBF2E0DF0123
:1023D0008D91C81769F082E0A43CB807C9F76C2F4B
:1023E0008CEB92E00E94AF080E94C70ECF91089537
:1023F0008191C81303C0DF0111971C9282E0E43C75
:10240000F807B1F70E94C70EEACF80E28C0F883040
:1024100068F7C77021E030E001C0220FCA95EAF7E3
:1024200080912703822B80932703DECF0F931F9386
:10243000CF93DF93EC01FC0101900020E9F78F01BD
:1024400001501109C017D10728F0DF91CF911F91DA
:102450000F91089589910E94010EF4CF0F931F935D
:10246000CF93DF938C018091EC04843059F581E0A7
:102470008093E9008FEF9091E800815095FD06C0B0
:1024800095ED9A95F1F700008111F5CF8091E80064
:1024900085FF18C00E94F00781110FC0C8E0D0E08E
:1024A0008091E80085FD13C08091E8008E778093CD
:1024B000E8000E94F007882399F38091E8008E7766
:1024C0008093E800DF91CF911F910F910895F8015B
:1024D00081918F018093F100219711F7EECFCF9377
:1024E000DF93EC010E942E1288E0FE01A9EDB4E01A
:1024F00001900D928A95E1F7DF91CF910895539A5B
:102500003BB1377F2BB128604FB7F8948BEE93E047
:10251000FC015191CF0168E02BB9000000C057FFCA
:102520003BB9550F000000C000C000C03BB900C05F
:102530006A9591F7F4E0893C9F0751F74FBF8FE50B
:1025400094E00197F1F700C000000895B0E0A0E02A
:10255000ECEAF2E10C94432C7C015B016A0180916E
:10256000630301E010E08A3010F40AE010E0C1E0FB
:10257000D0E0B501C701F6010995811104C021968B
:102580000C171D072CF4CDB7DEB7EAE00C945F2CD6
:10259000CC9F9001CD9F300D300D112490E080E054
:1025A00045E34A95F1F70000019682179307C1F7BA
:1025B000E0CF80913703811110C08091D8008061F5
:1025C0008093D8008AE18A95F1F700C08091D90004
:1025D00080FF0AC081E08093370381E09091370348
:1025E000913009F080E0089582E0809337030E94E3
:1025F00077071092EC04F1CF0E94D912882359F08A
:10260000E091CF04F091D004309729F00190F0814F
:10261000E02D0995089580E00895FF920F931F9390
:10262000CF93DF93EC01F62E042F122F0E94D912C4
:1026300081110FC0C532D1057CF0A597FE01EE0FC8
:10264000FF1FEC0FFD1FE551FC4FF1820083128349
:1026500003C0C532D10594F3CDB7DEB7E5E00C94E5
:10266000642CCF93C82F0E94D912882329F081E0CF
:10267000C53228F080E003C081E0CA34D8F7CF919A
:102680000895B0E0A0E0E7E4F3E10C94452C7C0170
:10269000C0913E018FE0C89FC02D11241FE01C0F88
:1026A0001B3408F01AE40E94D912882319F016325C
:1026B00008F015E20E94D912811103C0C53208F456
:1026C000C5E22091220531E0230F08F42FEF30E01E
:1026D00050E040E06FEF7FEF80E090E00E94A02CA0
:1026E0006901D0E001E02C2FC11740F0812F0E943A
:1026F0003113CDB7DEB7E8E00C94612CFE01E1594F
:10270000FD4F808190913F01892309F14091F104AF
:102710004150042E000C550B47FF1BC0C6016091B1
:102720002205600F08F46FEF0E94F509AC0160917B
:102730001F057091200580912105F70109950E94E0
:10274000FF09462F282F672FCE010E948C09219662
:10275000CACFFA01EF50FB4F818982130AC0FA01F8
:10276000EE0FFF1FEF50FB4F818D928D8C159D0555
:10277000B0F241505109D0CFEF92FF920F931F93C7
:10278000CF93DF937C01C0913E018FE0C89FC02DA5
:1027900011241FE01C0F1B3408F01AE40E94D91208
:1027A000882319F0163208F015E20E94D91281111F
:1027B00003C0C53208F4C5E26091220566956695AE
:1027C00021E0620F08F46FEF8091ED049091EE0428
:1027D0000E94F509082FD0E0C11740F0812F0E9418
:1027E0003113CDB7DEB7E6E00C94632CFE01E1595E
:1027F000FD4F808190913F01892391F060911F05E9
:102800007091200580912105202F4C2FF70109950B
:102810000E94FF09462F282F672FCE010E948C09A6
:102820002196DACFB0E0A0E0E8E1F4E10C94432C8B
:10283000182F80913C01811323C090911E05937045
:1028400020913B0130E081E09217130609F480E00B
:102850008170809340018091230590913F019817EA
:1028600039F080933F0140E060E080E00E948F09F2
:102870001B3088F4E12FF0E0EE5BF24D0C94BF2C9E
:1028800081E0E6CF80914001882389F140E060E05B
:1028900080E00E948F0980E02AC0C0913E018FE055
:1028A000C89FC02D11240FE00C0F0B3408F00AE470
:1028B0000E94D912882319F0063208F005E20E941E
:1028C000D912811103C0C53208F4C5E260911F0519
:1028D00070912005809121050E94FF09F62EE72EB8
:1028E000D82ED0E0C017D8F0802F0E9431139091DD
:1028F0003E019F5F90933E0181110CC082E0809366
:10290000410180914001811105C0111103C083E094
:1029100080934101CDB7DEB7EAE00C945F2CFE0155
:10292000E159FD4F808190913F01892331F02D2D98
:102930004F2D6E2DCE010E948C092196D3CFC091D0
:102940003E018FE0C89FC02D11240FE00C0F0B3407
:1029500008F00AE40E94D912882319F0063208F020
:1029600005E20E94D912811103C0C53208F4C5E204
:10297000E0902005F0902105D0911F056D2F7E2D50
:102980008F2D0E94FF09D62EC72EB82E60912205EA
:102990006D0F7E2D8F2D0E94FF09F62EE72EA82E9B
:1029A000D0E0C01708F0A0CFFE01E159FD4F9081A3
:1029B00080913F01892359F02A2D4F2D6E2D90FDD6
:1029C00003C02B2D4D2D6C2DCE010E948C0921961C
:1029D000E8CFC0913E018FE0C89FC02D11240FE0C9
:1029E0000C0F0B3408F00AE40E94D912882319F066
:1029F000063208F005E20E94D912811103C0C532E7
:102A000008F4C5E2E0902005D09021052091220530
:102A1000B0E4FB2E3F2D329F312D1124F32ED0E058
:102A2000C01708F061CFFE01E159FD4F8081909100
:102A30003F018923B9F0FE01EE0FFF1FE156FE4F63
:102A400085AD82958F7060911F058F9D600D11245B
:102A50007E2D8D2D0E94FF09462F282F672FCE0136
:102A60000E948C092196DCCFC0913E018FE0C89F67
:102A7000C02D11240FE00C0F0B3408F00AE40E9463
:102A8000D912882319F0063208F005E20E94D91203
:102A9000811103C0C53208F4C5E2D0902005E09052
:102AA000210520912205F0E4FF2E3F2D329F312D8C
:102AB0001124F32ED0E0C01708F016CFFE01E15923
:102AC000FD4F808190913F018923D9F0FE01EE0FE7
:102AD000FF1FE156FE4F64ADF69EB0011124E5E004
:102AE00075956795EA95E1F780911F05680F7D2D33
:102AF0008E2D0E94FF09462F282F672FCE010E949E
:102B00008C092196D8CFC0913E018FE0C89FC02D7F
:102B100011240FE00C0F0B3408F00AE40E94D912C4
:102B2000882319F0063208F005E20E94D9128111BB
:102B300003C0C53208F4C5E2F0901F05D09120050E
:102B4000E0902105609122056695669566958091D5
:102B5000ED049091EE040E94F5090E94D609805878
:102B600087FD8195880F282F3E2D239F212D11242D
:102B7000822F6F2D7D2F0E94FF09F62EE72ED82E73
:102B8000D0E0C01708F0B0CEFE01E159FD4F8081C2
:102B900090913F01892331F02D2D4F2D6E2DCE01C7
:102BA0000E948C092196EDCF83E799E00E94BC1327
:102BB0009ECEC0913E018FE0C89FC02D11245FE0E2
:102BC000F52EFC0E2AE42F1510F44AE4F42E0E9490
:102BD000D912882329F035E23F1510F435E2F32E9F
:102BE0000E94D912811103C0C53208F4C5E2609178
:102BF0002205669566958091ED049091EE040E9401
:102C0000F509D82E80E48D0D0E94D60990E8C92ED2
:102C1000C80E8D2D0E94D60920E8B22EB80ED0E045
:102C2000CF1510F08F2D61CEFE01E159FD4F80814F
:102C300090913F018923A1F060911F0570912005BB
:102C400080912105ED2C0C2F2B2D4C2D0E94A809D5
:102C50000E94FF09462F282F672FCE010E948C0962
:102C60002196DECF82E699E0A1CF8BE599E00E9424
:102C700041133DCE85E599E0FACF0F931F930E9453
:102C8000D912882329F00E94A3081F910F9108955B
:102C90000E94A308009164031091650320916603CC
:102CA00030916703600F711F821F931FEECFCF9289
:102CB000DF92EF92FF926B017C010E94D912882370
:102CC000A1F02FB7F8946091D2047091D304809151
:102CD000D4049091D5042FBF6C197D098E099F09EA
:102CE000FF90EF90DF90CF9008950E943D16F4CFB3
:102CF0000E94040F2FEF84E39CE02150804090401D
:102D0000E1F700C0000088E19CE00FB6F894A895B8
:102D1000809360000FBE90936000FFCFB0E0A0E012
:102D2000E4E9F6E10C94452C6C017B0164E670E06B
:102D300088E70E948529EC0197FD12C010E000E0B1
:102D4000F601E00FF11F849164E670E00E94F12922
:102D5000EC01892B29F40F5F1F4F0E151F0581F71A
:102D60000E94672ACE01CDB7DEB7E8E00C94612C53
:102D70008091CD049091CE04911103C091E08927F8
:102D80000895882369F062E070E081ED96E00E948A
:102D90008E16892B19F08091CD0408951092CD04E0
:102DA0008091CD04EBCFCF93C091CD048091CE0420
:102DB0008823D1F00E94A308605A75418F4F9F4F1E
:102DC0006093C9047093CA048093CB049093CC049D
:102DD000C11108C062E070E08FEC96E00E948E1690
:102DE000892B29F0C091CD048C2FCF91089581E0DB
:102DF0008093CD04F7CF4F925F926F927F928F9224
:102E00009F92AF92BF92CF92DF92EF92FF9260912A
:102E1000E6037091E7038091E8039091E9030E9433
:102E200057166B017C010E943D164B015C0180929C
:102E3000E6039092E703A092E803B092E903A09121
:102E4000BD03EDEBF3E08A2F90E04FEF5FEF60E022
:102E500070E04C195D096E097F09A91328C08093A1
:102E6000BD038091EA03811135C090911E05892F21
:102E7000837019F0892F8695869590914101913044
:102E800009F441C0992341F1923009F43FC09330D5
:102E900009F43FC0FF90EF90DF90CF90BF90AF90CC
:102EA0009F908F907F906F905F904F900895218DAD
:102EB000328D2901712C612C441555056605770565
:102EC00020F481509F5F3296C8CF2C0D3D1D328F6C
:102ED000218FF8CF80E0D1CF10923E018092ED0497
:102EE0009092EE04A092EF04B092F00489E2EDEB30
:102EF000F3E0A1EFB4E001900D928A95E1F781E053
:102F000080934101C7CF0E941214C4CF0E94480988
:102F1000C1CF80911D05882351F046E050E06CE15F
:102F200070E08EE195E00E94022D10921D056091E7
:102F3000ED047091EE048091EF049091F0040E94F2
:102F40005716603171058105910508F4A3CF1092E1
:102F50004101A0CFEEE1F5E085E08083809143015F
:102F600090914401A091450181839283A3838FE7CF
:102F700084838FEF858346E050E06CE170E0CF0101
:102F80000E94022D10921D050895A4E0B0E0EBEC24
:102F9000F7E10C944A2C40915B0350915C036091E3
:102FA0005D0370915E032FB7F8948091D2049091E5
:102FB000D304A091D404B091D5042FBF841B950BEA
:102FC000A60BB70B11E084369105A105B10570F190
:102FD0000E943D166E5F7F4F8F4F9F4F69837A83AC
:102FE0008B839C838091190190911A018B5B9C4F7C
:102FF0004091180150E04530510510F044E050E098
:10300000BE016F5F7F4F0E94DB2C83E090E00E9447
:10301000B12B182F882351F00E94A30860935B0303
:1030200070935C0380935D0390935E03812F2496DD
:10303000E3E00C94662CEF92FF921F93CF93DF9303
:1030400000D000D000D0CDB7DEB77B0190E080E0AB
:103050000E94B12B182F882309F46AC04091030104
:1030600050E04115510511F041E050E0609104013C
:10307000709105016B5B7C4FCE0106960E94DB2CA4
:1030800040913D0350913E0360913F037091400396
:103090002FB7F8948091D2049091D304A091D404D6
:1030A000B091D5042FBF841B950BA60BB70B8436AC
:1030B0009105A105B10538F486E493E00E941B0751
:1030C0009E818917A9F181E090E00E94B12B8823AD
:1030D00009F44EC040910B0150E04630510510F00C
:1030E00045E050E060910C0170910D016B5B7C4FED
:1030F000CE0101960E94DB2C86E493E00E941B0720
:103100009E81891335C00E94A30860933D0370938C
:103110003E0380933F039093400385E0FE01319688
:10312000A8E3B3E001900D928A95E1F711E00BC09E
:1031300085E0E6E4F3E0DE01119601900D928A95B8
:10314000E1F71111EACF85E0E8E3F3E0D701019060
:103150000D928A95E1F7812F26960FB6F894DEBF7F
:103160000FBECDBFDF91CF911F91FF90EF900895DB
:1031700010E0E9CF4F925F926F927F928F929F9271
:10318000AF92BF92EF92FF920F931F93CF93DF9373
:103190007B01FB0140805180628073809FB7F8946F
:1031A0008090D2049090D304A090D404B090D50421
:1031B0009FBF84189508A608B708F4E68F169104F7
:1031C000A104B10418F4C1E0442329F1C82F880FE9
:1031D000DD0BFE0183E0EE0FFF1F8A95E1F7E05063
:1031E000FF4F818192818B5B9C4F408150E004179F
:1031F000150708F4A801B9010E94DB2CCE010E943A
:10320000B12BC82F882339F00E94A308F7016083EF
:103210007183828393838C2FDF91CF911F910F91C4
:10322000FF90EF90BF90AF909F908F907F906F90A6
:103230005F904F900895A7E0B0E0E1E2F9E10C94CF
:10324000492C86E0EEE1F5E0DE01119601900D9249
:103250008A95E1F78091EA038F8347E050E064E5C7
:1032600073E0CE0101960E94CE2C41E0892B09F437
:1032700040E007E010E09E012F5F3F4F6FE573E0F5
:1032800084E00E94BA182796E4E00C94652C0F9312
:103290001F93CF93DF93EC0145E050E06BE473E0C4
:1032A0000E94CE2C41E0892B09F440E005E010E0BB
:1032B0009E0161E473E082E00E94BA18DF91CF9131
:1032C0001F910F9108959091750392FB222720F989
:1032D000281779F080FB92F990937503609174033D
:1032E0007091750384E090E00E94302D82E00E948E
:1032F000A60D089567EE7EEF90E080E00E94302DED
:1033000060E082E090E00E94122D60E083E090E0B7
:103310000E94122D10922A031092290360E074E19A
:1033200084E090E00E94302D60E086E090E00E9412
:10333000122D6FEF87E090E00E94122D40E050E0E8
:10334000BA0188E090E00E94242D60E08DE090E0DA
:103350000E94122D40E050E0BA0188E190E00E9406
:10336000242D60E087E190E00E94122D40E050E0C3
:10337000BA018CE190E00E94242D70E060E080E2D0
:1033800090E00E94302D40E050E0BA0188E190E0EA
:103390000E94242D40E050E0BA018FE090E00E94AE
:1033A000242D40E050E0BA0183E190E00E94242DFA
:1033B00008951F920F920FB60F9211242F933F93EF
:1033C0004F935F936F937F938F939F93AF93BF932D
:1033D000CF93DF93EF93FF93D091E900DF7080915B
:1033E000EC00C82FC17080FDC0E81092E900809108
:1033F000F000877F8093F00078940E94120F109263
:10340000E9008091F00088608093F000CD2BCF70B0
:10341000C093E900FF91EF91DF91CF91BF91AF9100
:103420009F918F917F916F915F914F913F912F91DC
:103430000F900FBE0F901F9018951F920F920FB60E
:103440000F9211242F933F934F935F936F937F932A
:103450008F939F93AF93BF93EF93FF938091E1007E
:1034600082FF09C08091E20082FF05C08091E100E7
:103470008B7F8093E1008091DA0080FF24C08091EF
:10348000D80080FF20C08091DA008E7F8093DA0020
:103490008091D90080FF9CC080E189BD82E189BD17
:1034A00009B400FEFDCF81E08093EC048091D60446
:1034B000811109C00E9477070E9496078091E2005F
:1034C00084608093E2008091E10080FF17C08091CA
:1034D000E20080FF13C08091E2008E7F8093E200C3
:1034E0008091E20080618093E2008091D800806248
:1034F0008093D80019BC85E08093EC048091E100B2
:1035000084FF2BC08091E20084FF27C080E189BD49
:1035100082E189BD89B5982F917080FFFBCF8091A2
:10352000D8008F7D8093D8008091E1008F7E8093BA
:10353000E1008091E2008F7E8093E2008091E200C2
:1035400081608093E2008091E304882309F446C0FF
:1035500084E08093EC048091EC048091E10083FF8F
:1035600026C08091E20083FF22C08091E100877F26
:103570008093E10082E08093EC041092E304809158
:10358000E1008E7F8093E1008091E2008E7F809346
:10359000E2008091E20080618093E20060E080E0E0
:1035A0000E9432078091F00088608093F000FF91C4
:1035B000EF91BF91AF919F918F917F916F915F91AB
:1035C0004F913F912F910F900FBE0F901F90189524
:1035D00019BC1092EC041092D60475CF8091E300D0
:1035E00087FD93E09093EC04B6CF78941F921FB6BA
:1035F0001F9211248F939F93AF93BF938091D20416
:103600009091D304A091D404B091D5040196A11D4A
:10361000B11D8093D2049093D304A093D404B093AB
:10362000D504BF91AF919F918F911F901FBE1F90A6
:1036300018959C014FB7F8948091D2049091D304CF
:10364000A091D404B091D5044FBF821B930B089571
:103650002FB7F8948091D2049091D304A091D40410
:10366000B091D5042FBF08950F931F93CF93DF938D
:10367000C62FD42F022FFC0182818823A9F06093EA
:103680001C050E94281B90931B0580931A05C77088
:1036900081E001C0880FCA95EAF70E94B011DF915E
:1036A000CF911F910F91089580911C05681335C02B
:1036B00080911A0590911B050E94191B883C910569
:1036C00060F510E21D0FCD17B9F080E28C0F883045
:1036D00040F4C77081E001C0880FCA95EAF70E94E4
:1036E000A911183048F481E09D2F977001C0880F10
:1036F0009A95EAF70E94B011802F0E94DD11802F69
:103700000E94BA11183058F6D77081E001C0880FB6
:10371000DA95EAF70E94A911C2CFC77081E001C013
:10372000880FCA95EAF7F6CFA5E0B0E0EAE9FBE139
:103730000C94412C7C01DC0113968D919C91149783
:10374000892B39F08C9111969C9189238F3F09F038
:1037500073C42596ECE00C945D2C0E94E50C182FA8
:10376000682F89819A810E94590D69817A81812F00
:103770000E94910B8C01F7018281F801E851FC470E
:10378000882309F43DC490E290933301109395038C
:10379000009394039801305221153043B8F49801F6
:1037A00033273093950320939403D70111969C916E
:1037B0001197909397039C9190939603E730F105AE
:1037C00008F03EC0E35BF24D0C94BF2C0C331105A6
:1037D00060F7D801AA5BBE4F9C9190933301E5CF6F
:1037E00026E241EE61EEC7010E94341B80911D0369
:1037F000877009F4AECFD70112968C91882309F413
:10380000A8CF8091750382FFA4CF82E00E94A60D0D
:10381000A0CF27E245EE65EEE6CF26E241EE60EE70
:10382000E2CF27E245EE64EEDECF26E241EE62EE25
:10383000DACF27E245EE66EED6CF28E241E0EBCFC5
:1038400010921C05980130572332310508F006C448
:1038500084E090E00E94FC2C9093750380937403A5
:10386000F801E150F047E232F10520F4EC5AF24D54
:103870000C94BF2C8091740381608093740395C075
:10388000809175038860809375038FC08091740365
:103890008260F3CF809174038460EFCF80917403D2
:1038A0008860EBCF809175038160EDCF80917503C7
:1038B0008260E9CF809174038061DFCF80917403CF
:1038C0008062DBCF809174038064D7CF0E94040FA5
:1038D000809174038068D1CF809174038C60CDCFC8
:1038E000809175038360CFCF809174038E7FC5CFA5
:1038F00080917503877FC7CF809174038D7FBDCF83
:10390000809174038B7FB9CF80917403877FB5CF8B
:10391000809175038E7FB7CF809175038D7FB3CF74
:10392000809174038F7EA9CF809174038F7DA5CF82
:10393000809174038F7BA1CF0E94040F8091740348
:103940008F779BCF80917403837F97CF809175038E
:103950008C7F99CF8091740382FB992790F921E0A5
:10396000922790FB82F990FB83F987CF80917503B2
:10397000982F909591708E7F892B90FB81F983CF42
:1039800090917403892F8F7B96FF806476CF0E947D
:10399000040F90917403892F97FB87F980586DCF9E
:1039A00061E08EE090E00E94122D609174037091AE
:1039B000750384E090E00E94302D0E94040F16CF22
:1039C00060E0EFCF90917403892F8F7E94FF806128
:1039D00054CF90917403892F8E7F90FF81604DCFDB
:1039E00090917503892F877F93FF88604CCF85E383
:1039F00015C3811156C0809127038272F801E052ED
:103A0000F847E531F10508F05CC0EA58F24D0C9436
:103A1000BF2C80911E0591E0892780931E0510928E
:103A2000410180911D05816080931D05DFCE43E338
:103A300059E06DE379E00E94C908D8CE4DE359E022
:103A400063E379E0F8CF4FE159E069E279E0F3CF41
:103A500049E259E06FE179E0EECF45E059E062E1FB
:103A600079E0E9CF42E159E065E079E0E4CF4BEE5F
:103A700058E068EF78E0DFCF48EF58E06BEE78E091
:103A8000DACF4FEC58E06DED78E0D5CF4DED58E052
:103A90006FEC78E0D0CF81E00E940207A7CE85E0EE
:103AA000FBCF0330ECE71E0709F49CC008F05BC0B5
:103AB00001152CE7120709F466C001301C4709F410
:103AC00097C0F701828100811181882309F49EC08B
:103AD000C8010E94E50CD82E682FC8010E94590D1C
:103AE000B8018D2D0E94910B0E94B00BB82E192F9A
:103AF000882ED7011296AC90129715969C909294AE
:103B00009FE0992280911D038770F1F0DA2CAA20A2
:103B1000E1F0812F807F803451F080E28B0D88307E
:103B200098F0911004C0812F807E803269F08091DE
:103B3000750382FF09C082E00E94A60D80911D03DB
:103B40008770DD24D3948111D12CC12EC2948FE0D3
:103B5000C822BBE0BC1508F4C5C0EC2DF0E0E55769
:103B6000F24D0C94BF2C0B358CE7180709F44CC0B0
:103B70000C359CE7190709F43DC00A351C4709F0CC
:103B8000A0CF81E03EC00E94040FBFEFE4E3FCE061
:103B9000B150E040F040E1F700C0000081E08093C8
:103BA000E00080E28093D8001092C9008FE19EE48B
:103BB0000197F1F700C0000087E090EBDC018093F3
:103BC000340790933507A0933607B093370788E101
:103BD0009CE00FB6F894A895809360000FBE909378
:103BE0006000FFCF6FEF7FEF90E080E00E94302D0C
:103BF0000E9478168091750382FB882780F991E0F6
:103C000089270E9463195DCF80E0FBCFC8010E9425
:103C1000260DD82E65CF012F0F70107F11F0029561
:103C2000007FAA20B9F0002369F080E28B0D883074
:103C300010F0811009C080912703082B00932703FF
:103C40000E94C70E8B2D4CC080912603082B009339
:103C50002603F6CF8B2D0E94BA11002309F442C02F
:103C600080E28B0D883010F0811004C0802F0E94FC
:103C7000B40C06C000958091260308230093260308
:103C80000E94C70E2FC0012F0F70107F103211F04D
:103C90000295007F8820A1F0E1E08E1609F480C033
:103CA000AA2009F48AC0992009F480C0D70115968A
:103CB0008C91159780FFC6CF8F7015968C9376C028
:103CC0002091750322FD44C0AA20E1F1002339F0C0
:103CD00080912703082B009327030E94C70E80E0E2
:103CE0000E94DD11EC2DE850FF0B349710F40E9478
:103CF000FC12DD20B1F080911D0380FD12C0D701C0
:103D000012961C928595859585950E94C20DC701D6
:103D10000E94941B80911D038595859585950E9431
:103D2000940D85E0F701DE01119601900D928A95C0
:103D3000E1F709811A81C8010E94260DB8010E948D
:103D4000910B07CD80E00E94BA11002359F28ECF6B
:103D5000AA20A1F090912803802F892B911003C0F5
:103D60000E94B011BFCFF1E09F12FACF22FFBACF6D
:103D7000891709F4B7CF80932803B4CF911006C0F8
:103D80000E94AE0C802F0E94A911ACCF21E09216A8
:103D900009F4A8CF802F0E94A9110E94AE0CA2CFD7
:103DA000AA2031F035E0391508F49CCF802FD8CF08
:103DB00084E0891508F496CFE5CF992019F3B9E38B
:103DC0008B1209C0EFEFF7EE23E0E150F040204006
:103DD000E1F700C000008B2D0E94BA1183CF812F24
:103DE000837009F03FC0A1107DCF4B2D42954695C1
:103DF0004770440F440F8B2D8F7090E0042E02C04B
:103E0000880F991F0A94E2F730E020E0B4FE09C061
:103E10002FE030E002C0220F331F4A95E2F72095D1
:103E20003095169516951370123099F078F44091EC
:103E3000290350912A03113039F0822B932B8423CC
:103E400095230E94D20D4ECF842B952B822B932B42
:103E5000F8CF822B932B2091290330912A038227BC
:103E60009327EFCF8695AA2011F0812F81708823A8
:103E700009F438CF4B2D429546954770440F440FB7
:103E80008B2D8F7090E0042E02C0880F991F0A942A
:103E9000E2F730E020E0B4FE09C02FE030E002C0DD
:103EA000220F331F4A95E2F7209530951695169507
:103EB0001370123099F078F440918B0350918C0379
:103EC000113039F0822B932B842395230E948F0D80
:103ED00009CF842B952B822B932BF8CF822B932BFE
:103EE00020918B0330918C0382279327EFCF1F7093
:103EF000AA2029F0812F0E94C20D8B2D31CF8B2D4E
:103F00000E94A911812F0E94940DECCE8B2D32EFCF
:103F1000831699F1381570F090EF8916D1F0A1EF62
:103F20008A1691F0AA2009F45BC091108BCE812FE4
:103F30008F7127C0B3EF8B1639F1E4EF8E12F2CFF9
:103F40008091750382FD2EC0812F8F71AA20D9F236
:103F500018C0AA2069F0F4E0F91508F4C3CE1F7167
:103F600081E090E002C0880F991F1A95E2F7B8CF60
:103F700025E0291508F4B6CEF2CF812F8F71A1105C
:103F8000C2CF0E94C20DAECE90E080E0AA2009F41C
:103F90009DCF1F7181E090E002C0880F991F1A9594
:103FA000E2F794CFAA2089F01F71812F0E94C20DE1
:103FB0008091750382FF07C038E0139FC001112470
:103FC000836080931D03812FDCCF81E00E94A60DCA
:103FD00081E0891508F086CE82E00E94A60D82CE8F
:103FE000992059F0893309F0F6CE9FEFA7EEB3E0A0
:103FF0009150A040B040E1F7ECCE812F8F7183CF7C
:10400000E730F10508F4DECB0631BCE71B0709F009
:10401000F2CC8091C4028111EACC89E2EEEBF2E0AD
:1040200024EC32E09191891303C0DF0111971C92B7
:104030002E173F07B9F726C085E0F701DE0111967C
:1040400001900D928A95E1F7F701228189819A8189
:10405000211183CB0E94260D182F87CB0631FCE758
:104060001F0709F0C6CC809127038A7A91E009F4F2
:1040700090E09093C40269E2811165E38CEB92E0D9
:104080000E94AF080E94C70EB1CB1F93CF93DF935E
:104090008091EA02807F09F04BC08091E70288237B
:1040A00009F446C080911C03C091EB024091E502E7
:1040B0005091E6026091E8027091E902D42FD52375
:1040C00016E0C817A9F190E061157105A9F1DF3F6D
:1040D00099F1189FF001199FF00D1124DF01A451EF
:1040E000BD4F11962C911197251326C02C912413A6
:1040F00023C012962C91129721111EC013962D9158
:104100003C91261B370B283C3105B0F48091EA0224
:104110008F7080618093EA02EF50FD4F80818F7035
:104120008061808385EE92E00E94941B0E94DB0CEC
:10413000DF91CF911F91089501968770C2CFA1E1C1
:10414000B0E0E5EAF0E20C94412C8C0185E0F80146
:10415000DE011D9601900D928A95E1F7F801E2804B
:1041600085EE882E82E0982E4091E8025091E90277
:104170004115510509F430C19091E5022091E60204
:10418000892F82238F3F09F427C1D080C180A3806B
:10419000B480F090E702B501641B750BFF2009F4B1
:1041A000E7C08091EA02382F307F683C710508F043
:1041B000ABC0311178C0FE2C2C1114C09D1112C05F
:1041C000E11010C08F7080618093EA02C4010E94E8
:1041D000941B8091EA02F80185838F2D6196ECE0B3
:1041E0000C945D2CA114B104C9F18D2D8C218F3F4D
:1041F000A9F181E08E2580FF05C04E2D6C2D8D2DFF
:104200000E94BB0CA114B10459F18D2D8C218F3F5C
:1042100039F181E08E25F82FF170BF2E80FF39C073
:104220004E2D6C2D8D2D0E94BB0CA82E811131C0FE
:10423000DD86CE868D859E850E94190D292F2295BB
:104240002F70243078F49F702230A8F09923B9F0B1
:10425000F8019581907F99F4FA2CBFCF80E0CBCF05
:1042600080E0D9CF2A5F2F70223068F0C8010E9409
:10427000941BAB2CF1CF992311F0882369F3805E56
:10428000883050F3F3CF803F38F3815F833070F78D
:10429000E3CFEE2009F4A1CF8091EA028160809300
:1042A000EA02F12C9ACF2C1105C09D1103C0EE201B
:1042B00009F477C0C8010E94D70D882309F1EE20C8
:1042C000F9F08091EA02803270F02091E50230919D
:1042D000E60238872F831986BB86AA868C87CE0193
:1042E00007960E94941B86E0F801A5EEB2E00190CB
:1042F0000D928A95E1F70E944520FF24F3946DCF3B
:10430000C8010E94941BF9CF31110AC085EE92E0DA
:104310000E94941B86E0F40111928A95E9F7C1CFBF
:104320002C110EC09D110CC0E1100AC08583C8017C
:104330000E94941B86E0F40111928A95E9F74DCF13
:10434000C8010E94D70D8823D9F2EE20C9F28091CE
:10435000EA02803240F22091E5023091E6023A838F
:1043600029831B82BD82AC828E83CE010196B9CF98
:10437000683C7105F8F6FE2CEE2011F22C111EC0DF
:104380009D111CC08091EA0280FD0FC0982F907F84
:1043900061F08583903F31F0982F907F905F8F7010
:1043A000892B8583C8010E94941B86E0F801A5EE45
:1043B000B2E001900D928A95E1F70FCFC8010E94FB
:1043C000D70D811190CF8091EA0281608093EA023B
:1043D000C8010E94941B01CFEE2009F491CFC801BF
:1043E0000E94D70DF82E882309F48ACF86E0F801C1
:1043F000A5EEB2E001900D928A95E1F78091E50279
:104400009091E6020E94190D0E944520E6CEA7E198
:10441000B0E0EDE0F2E20C944A2C4B8B5C8B6D8BA0
:104420007E8B8F8B6111109226031A8A198A85E080
:10443000FE017396DE011D9601900D928A95E1F7BB
:1044400086E0FE013D96DE01179601900D928A9559
:10445000E1F7CE0107960E949F20811112C086E0ED
:10446000FE013796DE01119601900D928A95E1F7D3
:104470008A859B85892B29F088859F8189238F3F99
:1044800081F516E080911C039091EB02891317C00F
:104490006796E3E00C94662C96E0929FD001939F80
:1044A000B00D1124A451BD4FFE01319601900D9223
:1044B0009A95E1F78093EB020E94DB0CE2CF819F9B
:1044C000C001112484519D4F0E949F20882301F335
:1044D00080911C0390E001968770992780931C03BC
:1044E000D1CF2091EB0230E0C90101968770992766
:1044F00040911C034817190679F60E94040F109288
:10450000EB0210921C0386E0E5EEF2E0DF011D9263
:104510008A95E9F7B6CFAFE0B0E0E1E9F2E20C94BA
:10452000402C8E010F5F1F4F8AE0D8011D928A95A3
:10453000E9F784E8C82E81E0D82EF12CE12CAA24DA
:10454000A394B12C2FE8822E21E0922EF6018191C6
:104550006F018F3F09F442C0F894E82FE295EF70A5
:10456000F0E021A18F70A50102C0440F551F8A956C
:10457000E2F7CA01922F982B91A392A180958923EB
:1045800082A3789400C0E9E8F1E0712C31E0219138
:104590002F3F09F46BC0A22FA295AF70B0E09096A8
:1045A0008C9190E02F7002C0959587952A95E2F73F
:1045B00080FD5CC0832F782A330F8E169F0639F753
:1045C000F601319780818F3F11F00E94950A50EAE1
:1045D0005A95F1F7F801EE0DFF1D70828FEFE81A82
:1045E000F80AA5E0EA16F10409F0B0CF4AE050E07D
:1045F000B80188E693E00E94CE2C009741F02AE0B3
:10460000F801A8E6B3E001900D922A95E1F7009138
:104610007303892B69F181E080932F030E94281B8B
:1046200090932E0380932D0380912D0390912E0360
:104630000E94191B059700F110E00A581C4F45E035
:1046400050E068E673E0C8010E94CE2CD12C892B83
:1046500051F085E0E8E6F3E0D80101900D928A95EB
:10466000E1F7DD24D39410922F0307C080E0A3CF9D
:1046700080912F038111D8CFD12C0E94D912C82E3E
:10468000E0917303882309F47FC07E01BBE0EB0E49
:10469000F11C85E0D7011D928A95E9F70E2F10E0F5
:1046A0000A581C4F809163038A30D8F54BE158E1DA
:1046B000B701C8010E94A612882309F454C047E438
:1046C00059E1B701C8010E94A612882309F44BC022
:1046D00045EC57E1B701C8010E94A612882309F4EE
:1046E00042C04BE159E1B701C8010E94A6128823DC
:1046F000D1F1109263038091720390E045E050E0A5
:10470000B7018A589C4F0E94CE2C21E0209336039B
:10471000892BE1F4C12C8C2D8D292F96EDE00C9482
:104720005C2C80913003909131030E94191B843FCF
:10473000914008F0BBCF80913603882359F385E080
:10474000F70111928A95E9F710923603A09172034E
:10475000B0E0AA58BC4F85E0FE013B9601900D9257
:104760008A95E1F7D8CF809163038F3F31F08F5F57
:10477000809363038A3008F4BECF0E94281B909375
:10478000310380933003D7CF0091720310E00A58B1
:104790001C4FF0E0EA58FC4F85E0A6E4B3E001903E
:1047A0000D928A95E1F786E493E00E941B078093BF
:1047B000450385E0EBE4F3E0D80101900D928A9582
:1047C000E1F78090500390905103A0905203B09075
:1047D00053038091320390913303A0913403B0913D
:1047E000350388169906AA06BB06D1F080923203DB
:1047F00090923303A0923403B09235030E94D912F1
:1048000081110EC00E94A308861A970AA80AB90A45
:104810008092640390926503A0926603B09267034E
:1048200086E0E4E5F3E0AEE1B5E001900D928A9513
:10483000E1F710915A03112349F08091EA038111A5
:1048400005C00E94121480E00E9448091093EA03F8
:1048500062CFA5E0B0E0EFE2F4E20C94492C0E94B4
:10486000281B8C0180912B0390912C0380179107BA
:10487000A1F08FEF89838A831B820E94281B8160AD
:10488000782F9D838C8349815A816B818D810E9411
:10489000072210932C0300932B032596E4E00C943D
:1048A000652C1F921FB61F9211248F939F93AF9375
:1048B000BF938091D104811113C08091D204909153
:1048C000D304A091D404B091D5044196A11DB11D8B
:1048D0008093D2049093D304A093D404B093D504CE
:1048E000BF91AF919F918F911F901FBE1F90189500
:1048F000CDB7DEB72A970FB6F894DEBF0FBECDBF97
:1049000085B7806885BF85B7806885BF84B7877F96
:1049100084BF0FB6F894A895809160008861809359
:104920006000109260000FBE80E890E00FB6F8942F
:1049300080936100909361000FBE83E99AE09093A9
:10494000BB028093BA020E9477070E94960780916B
:10495000E20084608093E20078948091EC048823E4
:10496000A1F01091E9001F709091EC00892F8170E7
:1049700090FD80E8182B1092E9008091E80083FDFB
:104980000E94120F1F701093E90082E084BD93E033
:1049900095BD9AEF97BD80936E00109264031092BC
:1049A000650310926603109267030E94D9128093E8
:1049B00028010E94D91281110E94C52A80912801E4
:1049C0008091280195E0811190E09093730385E038
:1049D000891B8093720304E811E0D8018D918D0149
:1049E0008F3F11F00E94950AB1E009381B07A9F723
:1049F00009E811E06FE8E62E61E0F62EF8018191FA
:104A00008F018F3F11F00E94950AE016F106B1F771
:104A10008AE0E6E7F3E0DF01082F1D920A95E9F747
:104A2000E8E6F3E0DF011D928A95E9F790E080E087
:104A30000E94FC2C873E9E4F11F00E947A1982E062
:104A400090E00E94F42C8093800384E090E00E9428
:104A5000FC2C909375038093740383E090E00E9494
:104A6000F42C90E00E94D20D1092F1048FEF9FEF92
:104A700090930B0580930A0590930D0580930C0588
:104A800090930F0580930E05909311058093100568
:104A90009093130580931205909315058093140548
:104AA0009093170580931605909319058093180528
:104AB0001092BD039093D7038093D6039093D903AC
:104AC0008093D8039093DB038093DA039093DD0304
:104AD0008093DC039093DF038093DE039093E103E4
:104AE0008093E0039093E3038093E2039093E503C4
:104AF0008093E40390E080E00E94FC2C873E9E4F70
:104B000021F00E947A190E94AA1781E080931D0566
:104B100046E050E06CE170E08EE195E00E94E42C0C
:104B200010921D0580911E058C7F11F40E94AA171A
:104B30000E94D912811128C182E08093B80380E8D5
:104B4000809329050E947F296DE070E08FE893E053
:104B50000E948E16892BE9F58091B80363E070E01E
:104B600081FD14C18CE893E00E948E16892B89F593
:104B70006DE070E08CE793E00E948E16892B49F57A
:104B80000E94A308605A75418F4F9F4F6093C904DC
:104B90007093CA048093CB049093CC04ECE2F5E0CC
:104BA00080E092E0DF018C011D9201501040E1F79E
:104BB000F0933307E09332078FEF9FEF90932B052D
:104BC00080932A0581E08093CE048093CD041092D7
:104BD000B9030E94D912811102C00E94C82A89E239
:104BE00091E09093D0048093CF048091EC048530C1
:104BF00089F450E4F52EEE24E39400E112E1809173
:104C0000EC04853009F4C5C00E94040F0E94FC1218
:104C10001092EA030E948B2201E813E01F830E83A7
:104C200006E713E019870887D801E1E8F3E09191DE
:104C30008D912BE833E02E173F0709F4F3C0981746
:104C4000B1F30E94D912682E3FE9C32E31E0D32E72
:104C5000A12C48E0442EA885B9859D90B987A887E6
:104C6000EE81FF815190FF83EE83591409F480C0D7
:104C70001601812C772473945924852D872109F4FA
:104C80006BC0B92CB720662099F08982AA8281E096
:104C9000B11001C080E08B830E94281B8160782FB7
:104CA0009D838C8349815A816B818D810E9407226B
:104CB000B11017C1D1018C918F3F09F014C10B2D98
:104CC00010E08091BD03800F912F911D09976CF129
:104CD00088E0E82EF12CE01AF10AB80162547C4F0A
:104CE000A7018EEB93E00E94DB2CB8016A537C4F46
:104CF000A70186EC93E00E94DB2CA701440F551F0F
:104D0000B801660F771F6A527C4F86ED93E00E94D0
:104D1000DB2CB80162537C4FA7018EEC93E00E941C
:104D2000DB2C842D8B198093BD038091BD0390E013
:104D3000EA85AE2FB0E09D01220F331F25523E4F72
:104D4000AA0FBB1FBD0164527E4F41E0480F9B1567
:104D500008F4CDC08093BD038394770CEFEF2E1A37
:104D60003E0AF6E08F1289CFEE81FF813197908263
:104D7000A39406E0C00ED11C1AE0A1126CCF0E94D1
:104D8000A308DD24D39453C080E0D7CE89E893E014
:104D9000EBCE8091EC04843009F432C00E94FB1603
:104DA0008091EA03811105C00E94121480E00E94E4
:104DB0004809E092EA030E94B8161092D10428E153
:104DC00030E00FB6F894A895209360000FBEF092E3
:104DD000600083B7817F846083BF83B7816083BFB6
:104DE0007894889583B78E7F83BF0FB6F894A89583
:104DF00080916000886180936000109260000FBE17
:104E00008091E204882309F4FACE0E948B22E6E71F
:104E1000F3E0819181115DC240E853E04E175F07D6
:104E2000C1F7EDCE98130DCF0E942924D12C0E94FA
:104E3000D9120E94FB168091CE04882309F4D7C0B2
:104E40008091BA039091BB030E94191BC29708F48A
:104E5000AEC00E94281B9093BB038093BA038CE2E0
:104E600095E090933307809332070E94D9128823EC
:104E700009F410C18FEB93E00E94810E20918B0307
:104E800030918C03832F9927009709F446C09C0129
:104E900088E0A90174E0569547957A95E1F74115A8
:104EA000510511F08C5F9A01A901569547955695C9
:104EB00047954115510511F08E5F9A01369527955A
:104EC000232B09F08F5F813009F4A0C0882339F1CA
:104ED000823009F49EC0833009F49EC08CE993E0CF
:104EE00020C0B12CECCE8A87BB24B394E8CE90E0EE
:104EF000FC01E354FC4FD9015C915183DB015C91CF
:104F00005187BA85B18B880F991FFC01E354FC4F80
:104F1000128E118E91E0842F18CF80E0BACF87EBEC
:104F200093E00E94C10E809197030E949B06FC01B2
:104F3000019620812032D9F3CF010E9416128DEC08
:104F400093E00E94810E809196030E949B06FC01D3
:104F5000019620812032D9F3CF010E94161289ECEC
:104F600093E00E94810E40909403509095038091AD
:104F70003101909132014816590609F050C08091D4
:104F80009303803209F04BC02DE833E0C9012F5F55
:104F90003F4FFC0140814032C9F30E94161287EC5A
:104FA00093E00E94810E809133010E94010E809156
:104FB0002A0590912B05892B09F0AAC08091CD0478
:104FC0008823A9F00E94A3080091C9041091CA0483
:104FD0002091CB043091CC04601B710B820B930B9E
:104FE0006F3F7F4F8F4F9F4710F40E94B816D1102C
:104FF0000E94D3160E94FC129091BC03891709F4F9
:10500000F4CD8093BC030E94A308EFCD81EB93E025
:1050100088CF8BEA93E085CF84EA93E082CF5092E9
:1050200032014092310180E280939303712C612C14
:10503000109292030DE8A02E03E0B02E88E8E82E2F
:1050400083E0F82E8501C301B2012AE030E040E0A0
:1050500050E00E947E2C605D603319F4A016B1060A
:1050600031F0411451046104710409F460E2D80183
:1050700014966C93C301B2012AE030E040E050E0A6
:105080000E947E2C29013A0101501109E016F10617
:10509000D1F67ACF80913207909133078C529540A8
:1050A0009C013E5F21303240B0F020E032E0281B0E
:1050B000390B40912A0550912B05EFECF3E0280FB6
:1050C000391F61E070E08217930740F050932B0581
:1050D00040932A056CCF20E032E0EBCF1491DC0145
:1050E000A45DBA4F0C91101781F01C93DC0115E000
:1050F000B695A7951A95E1F78B0102C0000F111F15
:10510000AA95E2F7D801402B5B2B01963196DBCFB5
:105110008091CE04882309F451CF8091B903811185
:105120004DCF0E94D31620912A0530912B052115D1
:10513000310509F443CF80E041E050E0082F10E052
:105140007A01082E02C0EE0CFF1C0A94E2F7B701A8
:1051500062237323672B11F48F5FF0CF9091B80314
:1051600090FF9EC0880F880F880F809336011092A1
:105170003901895F8093370183E080933A0124E607
:1051800030E047E050E064E371E088E70E941F2AC6
:10519000892B09F013CFA80125E0440F551F2A954C
:1051A000E1F78091B80380FF8DC0E8E9F3E080E289
:1051B000DF011D928A95E9F7E3E9F1E0FF83EE83D1
:1051C0000FE811E087E9282E81E0382E97E0992E2C
:1051D00088248394AE81BF812D91BF83AE83F80173
:1051E00041908F01440E552E511CC201845D9A4F8F
:1051F0002C01E22FF0E0E856FC4F30E020E0692C73
:10520000621AC82C022E01C0CC0C0A94EAF7520193
:1052100090E0D5018D915D018C21662D691B677031
:10522000762E062E000C770BB82F01C0BB0F7A9498
:10523000EAF77B2E7195619571096770772701C038
:1052400086956A95EAF7782A8081782A70829F5F2E
:105250009830F9F62F5F3F4F31962830310579F6B7
:10526000EE81FF812E163F0609F0B4CF04E610E070
:1052700020E230E048E953E060E488E70E94402AF9
:10528000892B09F09BCEE094F09480912A059091AF
:105290002B05E822F922F0922B05E0922A058ECE0A
:1052A0008295880F807680933601980136952795F0
:1052B0003695279520933901815E809337011092AE
:1052C0003A015DCF445D5A4F04E610E020E230E041
:1052D000D3CF09BD19BD09B400FEFDCF8091D80020
:1052E0008F7D8093D8008091E00082608093E00001
:1052F0008091E00081FDFCCF0E94040F80CC1092D1
:10530000B9008CE08093B8000895B0E0A0E0EBE82D
:10531000F9E20C94422CB82EEB010E94281B6C0180
:10532000EE24E394F12CC431D10560F025E0E22EA7
:10533000F12CCF3FDC0731F0CE0164E170E00E9438
:10534000272C7B0184EAA82E94E8992E1092BC00A9
:10535000A092BC000E94281B8C018091BC0087FF9A
:105360000DC08091B900887F8830F9F08091B90034
:10537000887F8031D1F00FEF1FEF08C0C8010E9475
:10538000191BE816F90648F70EEF1FEFCF3FDC07B1
:10539000E9F2C6010E94191BC817D907B8F6C8015F
:1053A000CDB7DEB7EBE00C945E2CB092BB009092D0
:1053B000BC000E94281B8C018091BC0087FF0AC0A2
:1053C0008091B900887F883111F08034A1F610E017
:1053D00000E0E5CFC8010E94191BE816F90660F746
:1053E000D3CF0F931F93CF93DF93EB018093BB0039
:1053F00084E88093BC000E94281B8C018091BC0033
:1054000087FF11C02091B900287F81E090E0283209
:1054100011F490E080E0919581959109DF91CF9111
:105420001F910F910895CF3FDC0741F3C8010E94FF
:10543000191BC817D90710F78EEF9FEFEFCFB0E019
:10544000A0E0E5E2FAE20C94452C6B018A017901B7
:10545000B9010E948529E6010C0D1D1DC017D10759
:1054600011F097FF08C024E92093BC00CDB7DEB748
:10547000E8E00C94612CB70189910E94F129EECFEC
:10548000B0E0A0E0E6E4FAE20C94452CC62F6A01F5
:105490007901B8010E94852997FD0CC0B8018C2FB5
:1054A0000E94F129E601EC0CFD1CCE15DF0511F080
:1054B00097FF08C024E92093BC00CDB7DEB7E8E031
:1054C0000C94612CB80189910E94F129EECF84E9F6
:1054D0008093BC0008958EE14A9B02C08150E1F7A1
:1054E0004A9BFECF08955A9880E28A95F1F75A9A1E
:1054F0000895FC013BE03A95F1F798E020E080E068
:1055000031E040E14A95F1F7880F4A9B02C0816083
:10551000232742E04A95F1F7000040E14A95F1F770
:10552000915079F790E19A95F1F799B132E03A9577
:10553000F1F7000040E14A95F1F792FB992790F9C5
:1055400092272081920F90830895A1E0B0E0EBEACA
:10555000FAE20C94472C19828C017C01E60EF11CB6
:105560000E151F0541F481E09981911180E021968B
:10557000E6E00C94632C0E946B2ACE0101960E94F7
:10558000792AF80181938F01EBCF529A5A9A0895A4
:1055900052985A9AEA9AE9E6F0E080818F7C8083FB
:1055A00008956150770B91E001C0990F6A95EAF771
:1055B00020E031E0911108C0222391F05A9A80E254
:1055C0008A95F1F75A980895492F482339F05A9A45
:1055D000232740E24A95F1F79695ECCF5A98F9CFF8
:1055E0005A98EDCFFF920F931F93CF93DF93EC0167
:1055F0008C01060F111DC017D10729F4CDB7DEB7F6
:10560000E5E00C94642CF9900E94732A68E08F2DD9
:105610000E94D12AF0CF1F920F920FB60F92112441
:105620000F931F932F933F934F935F936F937F93AA
:105630008F939F93AF93BF93EF93FF93CF93DF939A
:105640000F92CDB7DEB719820E946B2ACE01019668
:105650000E94792A082F069506950695282F2295EF
:105660002570902F9570290F922F9370269526956F
:10567000920F982797708981982B09F05CC00630AB
:1056800008F059C080E18A95F1F75A9A529A82E05F
:105690008A95F1F700C05A9888E0089F800111248C
:1056A000D801A050BF4F1696ED91FC9117973097F7
:1056B000A9F0609182017091830114962D913C9123
:1056C0001597260F371F11968D919C911297680F91
:1056D000791F13964C9113978C910995F801E0501E
:1056E000FF4F6381662351F0209182013091830145
:1056F00084819581820F931F0E94F22A0E94732A4F
:1057000080E18A95F1F75A9852985A9A80E18A95E1
:10571000F1F7F801E050FF4F6081662351F02091CE
:1057200082013091830181819281820F931F0E94B7
:10573000A52A0E946B2A0F90DF91CF91FF91EF91E4
:10574000BF91AF919F918F917F916F915F914F9199
:105750003F912F911F910F910F900FBE0F901F90AF
:1057600018950F931F93CF93DF93EC0106970CF0DE
:105770004CC0F894529A5A9885E08A95F1F7000047
:105780009C2F969595708C2F8570980F892F83701C
:105790009695969523E0CC0FDD1F2A95E1F7980F9B
:1057A0008E01092B0E94732A00C068E0802F0E949E
:1057B000D12A80E18A95F1F752985A9A4A9B1EC0E5
:1057C00087E090E04A991CC0FE01E050FF4F6381E2
:1057D0006623F9F0209182013091830184819581C3
:1057E000820F931F0E94A52A811113C0529A5A9AC0
:1057F0007894DF91CF911F910F91089500C0DECF73
:10580000019729F4529A5A9A789480E0F2CF00C016
:10581000D9CF0E946B2A80E28A95F1F75A98529A62
:1058200080E18A95F1F7C050DF4F6881662351F01F
:10583000209182013091830189819A81820F931F87
:105840000E94F22A0E94732A789481E0D2CFAA1B88
:10585000BB1B51E107C0AA1FBB1FA617B70710F05B
:10586000A61BB70B881F991F5A95A9F7809590958D
:10587000BC01CD0108952F923F924F925F926F929B
:105880007F928F929F92AF92BF92CF92DF92EF92D0
:10589000FF920F931F93CF93DF93CDB7DEB7CA1B51
:1058A000DB0B0FB6F894DEBF0FBECDBF09942A887C
:1058B000398848885F846E847D848C849B84AA8424
:1058C000B984C884DF80EE80FD800C811B81AA81B1
:1058D000B981CE0FD11D0FB6F894DEBF0FBECDBF7C
:1058E000ED010895991B79E004C0991F961708F0FF
:1058F000961B881F7A95C9F780950895A1E21A2E04
:10590000AA1BBB1BFD010DC0AA1FBB1FEE1FFF1F63
:10591000A217B307E407F50720F0A21BB30BE40BB3
:10592000F50B661F771F881F991F1A9469F76095FA
:105930007095809590959B01AC01BD01CF010895B4
:10594000052E97FB1EF400940E94B72C57FD07D03C
:105950000E947E2C07FC03D04EF40C94B72C50957B
:105960004095309521953F4F4F4F5F4F089590954B
:105970008095709561957F4F8F4F9F4F0895EE0FE3
:10598000FF1F0590F491E02D0994FB01DC0102C09A
:1059900005900D9241505040D8F70895FB01DC016D
:1059A00004C08D910190801921F441505040C8F7F6
:1059B000881B990B0895FB01DC0102C001900D9238
:1059C00041505040D8F70895DC01CB01FC01F99912
:1059D000FECF06C0F2BDE1BDF89A319600B40D923B
:1059E00041505040B8F70895F999FECF92BD81BD5E
:1059F000F89A992780B50895A8E1B0E042E050E018
:105A00000C94E62CDC01A40FB51F4150504048F027
:105A1000CB01840F951F2E910E94132D41505040B1
:105A2000D0F70895262FF999FECF92BD81BDF89A3F
:105A3000019700B4021639F01FBA20BD0FB6F894D2
:105A4000FA9AF99A0FBE08950396272F0E94132DF4
:105A50000E94122D252F0E94132D242F0C94132DFC
:105A60000196272F0E94132D0C94122DF894FFCF2E
:105A7000F10F19109711191097114C106D10971103
:105A80005711631142144D149F14E91434158315F2
:105A9000D415D915321635163A160D1C111CF01BEB
:105AA000091C151C191C1D1C741CE91C7C1C461CA3
:105AB0004A1C801C4E1C841C901C5A1CE21C5E1C40
:105AC000941C621C981CC01C661C9C1CC71C6C1C73
:105AD000A21CAA1C521C881C561C8C1C701CA61CC8
